:020000040800F2
:10000000882400203903000839350008072100083A
:1000100035350008B5050008EB3C0008000000007D
:10002000000000000000000000000000790200084D
:10003000B905000800000000D50200082F3A0008AA
:100040005303000853030008530300085303000838
:100050005303000853030008530300085303000828
:100060005303000853030008530300085303000818
:100070005303000853030008530300085303000808
:100080005303000800000000A10500085303000806
:1000900053030008530300085303000853030008E8
:1000A0005303000853030008B13B00085303000842
:1000B000C53B0008DD3B000853030008530300085C
:1000C00053030008530300085303000853030008B8
:1000D00053030008C13C0008530300085303000801
:1000E0005303000853030008530300085303000898
:1000F00053030008530300085303000800000000E6
:100100000000000053030008000000005303000833
:1001100053030008000000005303000853030008C5
:100120005303000853030008530300085303000857
:100130005303000800000000000000005303000803
:1001400053030008530300080000000000000000F3
:10015000000000000000000000000000000000009F
:100160000000000000000000000000005303000831
:100170005303000800000000000000000000000021
:100180000000000053030008000000000000000011
:10019000000000000000000000000000000000005F
:1001A0000000000000000000530300085303000893
:1001B0000B2100085303000853030008000000004F
:1001C00000000000530300080000000000000000D1
:1001D000530300085303000800F002F800F03CF855
:1001E0000AA090E8000C82448344AAF10107DA4592
:1001F00001D100F031F8AFF2090EBAE80F0013F0A8
:10020000010F18BFFB1A43F001031847007D0000DF
:10021000207D0000103A24BF78C878C1FAD8520770
:1002200024BF30C830C144BF04680C607047000070
:100230000023002400250026103A28BF78C1FBD8EF
:10024000520728BF30C148BF0B6070471FB507F089
:10025000E4FC1FBD10B510BD00F06CF91146FFF7AE
:10026000F5FF04F085FC00F08AF903B4FFF7F2FF14
:1002700003BC00F08DF900002C4B19680868B0E849
:10028000F04F80F30988BFF36F8F4FF0000080F3C9
:10029000118870470000000008480068006880F37B
:1002A00008884FF0000080F3148862B661B6BFF38F
:1002B0004F8FBFF36F8F00DF00BF00BF08ED00E07E
:1002C000DFF80C00016841F470010160704700BF65
:1002D00088ED00E0EFF30980BFF36F8F134B1A68CE
:1002E0001EF0100F08BF20ED108A20E9F04F1060BB
:1002F00009B44FF0500080F31188BFF34F8FBFF364
:100300006F8F05F063FF4FF0000080F3118809BC88
:1003100019680868B0E8F04F1EF0100F08BFB0EC85
:10032000108A80F30988BFF36F8F70472800002080
:10033000EFF30580704700000948804709480047EF
:10034000FEE7FEE7FEE7FEE7FEE7FEE7FEE7FEE785
:10035000FEE7FEE704480549054A064B70470000E2
:100360009D3B0008D9010008881E00208824002039
:100370008820002088200020032A40F2308010F0DE
:10038000030C00F0158011F8013BBCF1020F624430
:1003900098BF11F801CB00F8013B38BF11F8013BC1
:1003A000A2F1040298BF00F801CB38BF00F8013B6E
:1003B00011F0030300F06280083AC0F0088051F8A1
:1003C000043B083A51F804CBA0E80810F5E7121DE9
:1003D0005CBF51F8043B40F8043BAFF30080D20708
:1003E00024BF11F8013B11F801CB48BF11F8012BD4
:1003F00024BF00F8013B00F801CB48BF00F8012BF7
:10040000704702F0FF0343EA032242EA024200F08F
:1004100069B84FF0000200B513469446964620395D
:1004200022BFA0E80C50A0E80C50B1F12001BFF4AD
:10043000F7AF090728BFA0E80C5048BF0CC05DF813
:1004400004EB890028BF40F8042B08BF704748BF61
:1004500020F8022B11F0804F18BF00F8012B7047D5
:1004600070477047704710B500F05CF8006810BD29
:1004700010B5044600F056F8046010BD10B5203ADF
:10048000C0F00B80B1E81850203AA0E81850B1E84D
:100490001850A0E81850BFF4F5AF5FEA027C24BF03
:1004A000B1E81850A0E8185044BF18C918C0BDE8FA
:1004B00010405FEA827C24BF51F8043B40F8043BC3
:1004C00008BF7047D20728BF31F8023B48BF11F878
:1004D000012B28BF20F8023B48BF00F8012B7047D2
:1004E0004FF000020429C0F0128010F0030C3FF41A
:1004F00092AFCCF1040CBCF1020F18BF00F8012B35
:10050000A8BF20F8022BA1EB0C01FFF784BF5FEA24
:10051000C17C24BF00F8012B00F8012B48BF00F874
:10052000012B704700487047281E00200048704784
:10053000281E00207546FFF7F9FFAE460500694604
:10054000534620F00700854618B020B5FFF702FF9C
:10055000BDE820404FF000064FF000074FF00008C4
:100560004FF0000B21F00701AC46ACE8C009ACE845
:10057000C009ACE8C009ACE8C0098D46704710B5A9
:100580000446AFF300802046BDE81040FFF76DBE83
:1005900001491820ABBEFEE72600020070470000AC
:1005A00010B504F09DF9024800F052FB10BD0000A8
:1005B000A800002000BFFEE7704772B600BFFEE74C
:1005C00010B5194901640368D3F8803023F4F81496
:1005D000838E44EA03430468C4F8803001F1700359
:1005E00043640368D3F8803023F0706490F83830A7
:1005F00044EA03630468C4F8803001F1B003836403
:1006000001F5C473C36401F51873036501F51E7326
:1006100043650A4602E000231360121D01F554737E
:100620009A42F8D310BD000000A400407047704704
:1006300070477047704700002DE9F0439BB00446B7
:100640000E464FF00008306800B100BF00BF94F8BC
:100650005800012803D102201BB0BDE8F08301201F
:1006600084F8580000BF0020179018902068B0F15F
:10067000A04F02D13148009001E000200090009886
:1006800050B9E06D40F02000E06500BF002084F824
:10069000580000BF0120DFE7009801F05EFD07462B
:1006A000206801F05AFDD8BBD7BB254D306800B398
:1006B00094F83800716841EA4030A96821F460413B
:1006C0000843A8604FF0A04001F038FD81461B4868
:1006D00001F034FD49EA0009B9F1000F27D1B168F2
:1006E00030680843A96840F61F7291430843A86028
:1006F0001DE0A86820F46040A8604FF0A04001F021
:100700001DFD81460D4801F019FD49EA0009B9F1C6
:10071000000F0CD1A86840F61F718843A86006E05E
:10072000FFE7E06D40F02000E0654FF0010800BFFA
:10073000002084F8580000BF40468DE700010050BB
:10074000000300502DE9F84F05460C464FF0000A13
:1007500000200090FE49E068884200D000E000BF21
:1007600000BF95F85800012802D10220BDE8F88F9B
:10077000012085F8580000BF286801F0E9FC002836
:100780007DD12968D4E9002001F1300CC0F3012BA0
:100790000CEB8B03D3F800C000F01F0E4FF01F0BC3
:1007A0000BFA0EFB2CEA0B0C00F01F0BC2F3846E4D
:1007B0000EFA0BFE4CEA0E0CC3F800C000BF28680E
:1007C00001F0C6FC8146286801F0AEFC8046B9F114
:1007D000000F64D1B8F1000FFBD1A068B0F1004F59
:1007E0000AD121680022286801F0CEFC4FF00041B8
:1007F000286801F0EEFC08E0A2682168286801F092
:10080000C3FC0021286801F0E4FC60692968C9681C
:10081000C1F3C101490000FA01F7206904283FD063
:1008200028682268216900F1600C0CEB8103D3F881
:1008300000C0DFF820B30CEA0B0C02F0F84B4BF0D1
:10084000004B4BEA070B4CEA0B0CC3F800C000BF8F
:100850002868A269216900F1600C0CEB8103D3F8D0
:1008600000C02CF0807C4CEA020CC3F800C000BF32
:100870002868227F2169012A02D1520601E0C6E1DF
:100880000022134600F1600C0CEB8102D2F800C08C
:100890002CF0007C4CEA030CC2F800C000BFA7E0BB
:1008A0000021286801F037FCC0F3120030B90021A4
:1008B000286801F030FCC0F3846007E0002128685C
:1008C00001F029FC90FAA0F0B0FA80F02168C1F3A1
:1008D000120119B92168C1F3846104E0216891FA19
:1008E000A1F1B1FA81F1884204D1002211462868B1
:1008F00001F064FC0121286801F00DFCC0F3120036
:1009000030B90121286801F006FCC0F3846007E0DB
:100910000121286801F0FFFB90FAA0F0B0FA80F006
:100920002168C1F3120119B92168C1F3846104E09F
:10093000216891FAA1F1B1FA81F1884204D1002233
:100940000121286801F03AFC0221286801F0E3FB4C
:10095000C0F3120030B90221286801F0DCFBC0F3BB
:10096000846007E00221286801F0D5FB90FAA0F02E
:10097000B0FA80F02168C1F3120119B92168C1F3FE
:10098000846104E0216891FAA1F1B1FA81F1884211
:1009900004D100220221286801F010FC03212868FC
:1009A00001F0B9FBC0F3120030B90321286801F04F
:1009B000B2FBC0F3846007E00321286801F0ABFBC1
:1009C00090FAA0F0B0FA80F02168C1F3120119B9D1
:1009D0002168C1F3846104E0216891FAA1F1B1FAC0
:1009E00081F1884204D100220321286801F0E6FB4E
:1009F000286801F09EFB002872D12868E26821680F
:100A0000D0F8B030C1F3120C23EA0C0302F0180B3B
:100A1000DFF844C12CFA0BFC0CEA010C43EA0C038E
:100A2000C0F8B03000BF4A49E068884258D1236816
:100A3000C3F312031BB92368C3F3846304E0236880
:100A400093FAA3F3B3FA83F35B1C03F01F03092BA0
:100A50003ED82368C3F312031BB92368C3F384632E
:100A600004E0236893FAA3F3B3FA83F35B1C03F067
:100A70001F034FF0010C0CFA03FC2368C3F31203AD
:100A80001BB92368C3F3846304E0236893FAA3F3D8
:100A9000B3FA83F35B1C03F01F034CEA836C2368F7
:100AA000C3F312031BB92368C3F3846304E0236810
:100AB00093FAA3F3B3FA83F35B1C03F01F0303EB76
:100AC00043034FF0000B4BEA03534CEA030347E0A8
:100AD0002368C3F3120323B92368C3F3846305E0D7
:100AE00043E0236893FAA3F3B3FA83F35B1C03F0A8
:100AF0001F034FF0010C0CFA03FC2368C3F312032D
:100B00001BB92368C3F3846304E0236893FAA3F357
:100B1000B3FA83F35B1C03F01F034CEA836C236876
:100B2000C3F312031BB92368C3F3846304E023688F
:100B300093FAA3F3B3FA83F35B1C03F01F030A3B9E
:100B400003EB43034FF0007B4BEA035306E0000046
:100B500000007F4000F0FF03FFFF07004CEA0303A3
:100B60001946A268286801F00FFB2F492068084049
:100B700050B300BF2D48806800F0E07600BF2C49DC
:100B80002068884203D02B49206888421DD106F492
:100B90000000D0B92868B0F1A04F3ED146F4000162
:100BA000224801F005FB244800682449B0FBF1F01D
:100BB000401C00EB40008000009002E00098401EC6
:100BC000009000980028F9D127E01D49206888424C
:100BD0000CD106F0807048B91A49286888421CD0A8
:100BE00046F08071114801F0E3FA16E016492068DA
:100BF000884212D106F4800078B9124928688842E8
:100C00000BD046F48001094801F0D2FA05E0E86D06
:100C100040F02000E8654FF0010A00BF002085F891
:100C2000580000BF5046A1E50000088000030050B6
:100C3000000021C31000C09024000020400D0300DC
:100C4000000052C700010050000084CB704770477D
:100C50002DE9F84F044600200090206805682068C0
:100C60004668C54801F052FA074605F0020002281E
:100C700011D106F0020002280DD1E06D00F0100045
:100C800018B9E06D40F40060E0652046FFF7CEFC47
:100C900002202168086005F00400042803D106F052
:100CA0000400042807D005F0080008285FD106F0EA
:100CB000080008285BD1E06D00F0100018B9E06D65
:100CC00040F40070E065206801F04CFA002848D03C
:100CD000AA492068884202D14FF0A04000E0206875
:100CE0002168884204D01FB1052F01D0092F03D1FC
:100CF0002068D0F80C800AE0A0492068884202D120
:100D00004FF0A04000E020688346DBF80C8008F438
:100D10000050B0F5005F24D02068006800F00800A3
:100D200008281ED1206801F013FA90B920684068A5
:100D300020F00C0021684860E06D20F48070E065D0
:100D4000E06D00F4805060B9E06D40F00100E065B6
:100D500007E0E06D40F01000E065206E40F001001B
:100D600020662046FFF772FF0C202168086005F01E
:100D70002000202803D106F02000202807D005F00D
:100D80004000402872D106F0400040286ED1E06D4E
:100D900000F0100018B9E06D40F40050E0652068E4
:100DA000C16C01F4C07109B9012100E000218A463B
:100DB00000BF206801F0D6F981467049206888425A
:100DC00002D14FF0A04000E020682168884204D0A2
:100DD0001FB1062F01D0072F03D12068D0F80C8057
:100DE0000AE066492068884202D14FF0A04000E046
:100DF00020688346DBF80C80BAF1000F30D008F091
:100E0000007028B1B9F1000F2AD008F4005038BBA7
:100E10002068006800F04000402821D108F400104C
:100E2000F0B9206801F080F990B92068406820F09E
:100E3000600021684860E06D20F48050E065E06D5E
:100E400000F4807060B9E06D40F00100E06507E0FB
:100E5000E06D40F01000E065206E40F0010020667B
:100E60002046FFF7E4FB60202168086005F0800061
:100E700080280DD106F08000802809D1E06D40F473
:100E80008030E065204600F0A9F9802021680860E4
:100E900005F48070B0F5807F0FD106F48070B0F556
:100EA000807F0AD1E06D40F40030E0652046FFF716
:100EB000C0FB4FF480702168086005F40070B0F545
:100EC000007F0FD106F40070B0F5007F0AD1E06D0D
:100ED00040F48020E0652046FFF7ACFB4FF4007043
:100EE0002168086005F0100010282AD106F01000D3
:100EF000102826D1E06B10B90120009010E047B116
:100F000000BF1D48806800F4604048B10120009097
:100F100006E02068C06800F0010008B101200090E0
:100F2000009801280AD1E06D40F48060E065206EF1
:100F300040F0020020662046FFF789FE102021685D
:100F4000086005F48060B0F5806F13D106F480600E
:100F5000B0F5806F0ED1E06D40F48040E065206E0A
:100F600040F0080020664FF4806021680860204649
:100F7000FFF75EFBBDE8F88F000300500001005052
:100F80002DE9F84304464FF000080020009014B902
:100F90000120BDE8F883606920B194F8240001289D
:100FA00000D100BFE06D30B9204600F019F90020F3
:100FB000206684F8580020688168C1F3407131B11F
:100FC000206881687E4A1140816000BF00BF2068B0
:100FD00001F0B9F8B0B9206881687A4A114041F04F
:100FE0008051816000BF784800687849B0FBF1F01B
:100FF000401C4000009002E00098401E00900098C5
:101000000028F9D1206801F09EF848B9E06D40F061
:101010001000E065206E40F0010020664FF00108EE
:10102000206801F095F80646E06D00F010000028F9
:1010300077D1002EFCD1E06D20F4807040F00200EA
:10104000E065206801F075F8B0B94FF0A04001F0FC
:1010500070F881465E4801F06CF849EA0009B9F180
:10106000000F09D160685B49896821F47C11014354
:10107000584A916000BF00BF607FE16B41EA403099
:10108000E1680843A168084394F8241040EA014548
:1010900094F82400012803D1208D401E45EA4045E4
:1010A000E06A28B1A08D00F47870216B08430543F5
:1010B0002068C0684849084028432168C860206803
:1010C000006920F04060616B084321680861206876
:1010D00001F02AF80746002E50D1EFBB207F0021F7
:1010E00041EA803194F8380041EA40052068C06840
:1010F00044F20201884328432168C860206988B10E
:101100002068006940F48030216808612068D0F8C8
:10111000C0006FF30D00216908432168C1F8C000C9
:101120000EE045E02068006920F480302168086105
:101130002068D0F8C0006FF30D002168C1F8C0002E
:1011400094F84000012813D1606C40F00101A06CBC
:101150000843E16C084300E010E0216D084321687A
:10116000096940F2FC72914308432168086105E077
:101170002068006920F00100216808616069012889
:1011800009D12068006B20F00F00216A491E084336
:101190002168086305E02068006B20F00F002168DB
:1011A0000863E06D20F0020040F00100E06505E01A
:1011B000E06D40F01000E0654FF001084046E8E6C1
:1011C000C0FFFF5FC0FFFF7F24000020400D030031
:1011D00000010050000300500740F0FF704700007E
:1011E00010B586B00446142101A8FFF712F9206853
:1011F000B0F1A04F54D12B482B490968030C0322AE
:101200009A409143C2B2030C9A401143264A883A4D
:10121000C2F8881000BF00BF1046C06C40F40050F8
:101220001146C8640846C06C00F40050009000BF2E
:1012300000BF00BF0846C06C40F00400C864084608
:10124000C06C00F00400009000BF00BF00BF084663
:10125000C06C40F00100C8640846C06C00F001009A
:10126000009000BF00BF0E200190032002900020DC
:10127000039001A90D4800F085F901200190032099
:1012800002900020039001A94FF0904000F07AF9FD
:1012900000220521122000F00BFB122000F0F4FACE
:1012A00006B010BD02001C00881002400008004873
:1012B00070B5044600F04CFA06462546681C10B18D
:1012C00004480068054400BF00F042FA801BA842B1
:1012D000FAD370BD2000002070B504460CB901207F
:1012E00070BD81492068884200D100BFA068B0F578
:1012F000407F00D100BF94F85C0028B9002084F83A
:101300005D00204600F0F4F82068806920F01000AD
:101310002168886100F01CFA05460DE000F018FA1B
:10132000401B0A2808D9206E40F0010020660320E7
:1013300084F85C000120D3E72068806900F0080091
:101340000828EBD02068806940F00100216888619E
:1013500000F0FEF905460DE000F0FAF9401B0A28FE
:1013600008D9206E40F001002066032084F85C005C
:101370000120B5E72068806900F001000028EBD06B
:101380002068806940F00200216888615649206821
:10139000884202D1554960680860207C012806D146
:1013A0002068806920F040002168886105E020689D
:1013B000806940F0400021688861607C012806D186
:1013C0002068806940F480402168886105E02068D9
:1013D000806920F4804021688861A07C012806D1C2
:1013E0002068806920F480502168886105E02068C9
:1013F000806940F48050216888612068806920F409
:101400004070A1680843216888612068806920F0E5
:10141000A400216888612068006920F0100021681C
:101420000861E068012806D12068806940F0040066
:101430002168886120E0E068F0B1E068022815D0FA
:101440002068806940F08000216888612068006918
:1014500040F0100021680861E06803280CD1206882
:10146000806940F020002168886105E0206880697B
:1014700040F0200021688861207E401E4106E0691E
:10148000401E41EA0020216A491E0843A18A491EE4
:1014900040EA01402168C861A068B0F5407F0FD1E3
:1014A000A06A401EE16A491E40EA0121206B401EED
:1014B00041EA0011A08C401E41EA00402168C8604A
:1014C0002068D0F8C000E16B08432168C1F8C00073
:1014D0002046FFF775F80020A0652066012084F8FB
:1014E0005C000020FCE60000006400400065004055
:1014F00010B586B00446142101A8FEF78AFF1E49E4
:101500002068884235D14FF000701C49096821F0ED
:1015100040710143194A883AC2F8881000BF00BFE1
:101520001046806D40F00070114688650846806D59
:1015300000F00070009000BF00BF00BF0846C06C04
:1015400040F00200C8640846C06C00F00200009041
:1015500000BF00BF4FF440700190022002900020B5
:101560000390022004900920059001A9044800F08E
:1015700009F806B010BD0000006400408810024069
:101580000004004878B502460B460021CAE0012657
:101590008E401D6805EA0604002C73D01D7905F005
:1015A0000305012D04D01D7905F00305022D13D18B
:1015B00090684E000325B540A8434E00DD68B54055
:1015C00028439060506801258D40A8431D79C5F3DC
:1015D00000158D40284350601D7905F00305032D4B
:1015E00009D0D0684E000325B540A8434E009D6841
:1015F000B5402843D0601D7905F00305022D13D1B5
:10160000CE0802F1200555F826004D07EE0E0F25F5
:10161000B540A8434E07F60E1D69B5402843CE08D5
:1016200002F1200545F8260010684E000325B5405C
:10163000A8431D7905F003054E00B540284310600E
:101640005D6805F44035002D6BD000BF384D2D6E20
:1016500045F00105364E356635462D6E05F001051F
:10166000009500BF00BF4FEAB6358E0855F826003A
:101670008D072E0F0F25B540A843B2F1904F02D130
:1016800000251AE04DE02B4DAA4201D1012514E0BE
:10169000294DAA4201D102250FE0284DAA4201D1CD
:1016A00003250AE0264DAA4201D1042505E0254D77
:1016B000AA4201D1052500E006258E07360FB54068
:1016C0002843214D8E0845F82600204D2868A04368
:1016D0005D6805F4801505B120431C4D28602D1D63
:1016E0002868A0435D6805F4001505B12043174D37
:1016F0002D1D2860154D2D1F2868A0435D6805F439
:10170000003505B12043114D2D1F28602D1F28687D
:10171000A0435D6805F4803505B120430B4D083DBD
:101720002860491C1D68CD40002D7FF430AF78BD86
:10173000001002400004004800080048000C004867
:10174000001000480014004808000140080401404F
:101750000148006870470000180000200348006836
:1017600003490968084401490860704718000020CF
:101770002000002010B50024032000F0D7F80F202F
:1017800000F008F808B1012401E000F051F820460B
:1017900010BD0000F0B587B004460026002700BF4A
:1017A0001E48006E40F480201C4908660846006E02
:1017B00000F48020009000BF00BF01A902A800F043
:1017C000A5FA00F0CBFA06461548B6FBF0F0471E26
:1017D00014481549086040F2E7311348C16047607A
:1017E00000210161816000F0E6FA054695B90E48D6
:1017F00000F01AFB05466DB91A2000F045F8102CD0
:1018000007D2002221461A2000F052F8074804604F
:1018100000E00125284607B0F0BD0000001002409E
:1018200040420F0000480140080500201C00002035
:1018300008B500BF1348006E40F00100114908666A
:101840000846006E00F00100009000BF00BF00BF1E
:101850000846806D40F0805088650846806D00F035
:101860008050009000BF00BF00220F21901E00F0AA
:101870001FF800F085FA022000F08CFA00F03CFA24
:1018800008BD0000001002400146084600280DDB9C
:1018900000BF00BF00F01F0301229A4043099B00D4
:1018A00003F1E023C3F8002100BF00BF00BF704771
:1018B0002DE9F05F80460D46164602F049FA0746CC
:1018C00039462A46334601F00700C0F1070ABAF14B
:1018D000040F02D94FF0040A01E0C0F1070AD14613
:1018E00000F1040ABAF1070F02D24FF0000A01E03A
:1018F000A0F1030AD4464FF0010A0AFA09FAAAF144
:10190000010A0AEA020A0AFA0CFA4FF0010B0BFA72
:101910000CFBABF1010B0BEA030B4AEA0B0421466B
:10192000404602F031FABDE8F09F000000BF00F031
:101930000702064B19684FF6FF031940044B0B438F
:1019400043EA0221014B196000BF70470CED00E033
:101950000000FA0538B5044600250CB9012038BD51
:1019600094F83A00052801D10120F8E794F83A00EC
:10197000022801D10120F2E7A06800B900BFA069E8
:1019800000B100BFA068402800D100BFE06A102865
:1019900000D100BF00BF4248006E40F00100404946
:1019A00008660846006E00F00100009000BF00BF0E
:1019B00094F83A0010B9002084F83900204600F06D
:1019C00073F8A068402802D0A068602826D120685B
:1019D000006820F01000E16A084321680860D4E93B
:1019E0000101084321690843217D012901D1090230
:1019F00000E000210843616A0843A16A0843218E80
:101A000040EAC14194F8340041EA00602168096865
:101A1000244A114008432168086027E020680068D4
:101A200020F01000E16A084321680860D4E9010150
:101A30000843E168084321690843217D012901D158
:101A4000090200E000210843616A0843A16A0843D3
:101A5000218E40EAC14194F8340041EA00602168D7
:101A60000968104A114008432168086020688069AD
:101A700000F0004058B9D4E906010843216A084340
:101A80002168896921F03F0108432168886194F841
:101A90003A0010B9012084F83A0028465FE70000B8
:101AA00000100240113E00E010B586B0044614213B
:101AB00001A8FEF7AEFC2E492068884219D100BF6C
:101AC0002C48C06C40F001002A49C8640846C06C2C
:101AD00000F00100009000BF00BF0E200190032025
:101AE00002900020039001A94FF09040FFF74AFDBB
:101AF0003BE01F49091D2068884219D100BF1D48DD
:101B0000C06C40F001001B49C8640846C06C00F07E
:101B10000100009000BF00BFE02001900320029070
:101B20000020039001A94FF09040FFF72BFD1CE02F
:101B30000F4908312068884217D100BF0D48C06C9A
:101B400040F002000B49C8640846C06C00F0020077
:101B5000009000BF00BF07200190032002900020EA
:101B6000039001A90448FFF70DFD06B010BD000069
:101B700000030140001002400004004802461168C2
:101B80000120C2F8D002002082F8C80231F8540FB8
:101B900040F001000880088840F0020021F8540954
:101BA0000020704770B504460CB9012070BD94F850
:101BB000910228B9002084F89002204600F078F8BD
:101BC000032084F89102206802F085F800252AE0BD
:101BD000012105EB850204F1100000EBC200417009
:101BE00005EB850104F1100000F83150002105EBF0
:101BF000850200EBC200C17005EB850204F1100004
:101C000000EBC200016105EB850204F1100000EB5E
:101C1000C200416105EB850204F1100000EBC20037
:101C20008161681CC5B22079A842D1DC00252AE078
:101C3000002105EB850204F5A87000EBC20041709D
:101C400005EB850104F5A87000F83150002105EB83
:101C5000850200EBC200C17005EB850204F5A87097
:101C600000EBC200016105EB850204F5A87000EBF2
:101C7000C200416105EB850204F5A87000EBC200CB
:101C80008161681CC5B22079A842D1DC94E80700C4
:101C900002F017F800202073012084F89102A07A46
:101CA000012802D12046FFF769FF00207EE70000EF
:101CB00008B50F4A0168914218D100210D4A1268F7
:101CC00022F040620A430B4B883BC3F8882000BFD8
:101CD00000BF1946896D41F400011A46916511460D
:101CE000896D01F40001009100BF00BF08BD000034
:101CF000005C0040881002400348806840F4804047
:101D00000149886070470000007000400F220260A7
:101D10000D4A926802F0030242600B4A926802F098
:101D2000F0028260084A926802F4E062C260064AE9
:101D3000926802F46052D2080261044A126802F00A
:101D40000F020A60704700000010024000200240AD
:101D500001480068704700002400002000B5FFF72C
:101D6000F7FF05498968C1F3C221044A515C01F0BB
:101D70001F01C84000BD000000100240D47D0008D3
:101D80000348006B20F00100014908637047000020
:101D9000000001400349096B21F002010143014A9F
:101DA00011637047000001407047704770477047EB
:101DB00070477047704710B504460CB9012010BD3C
:101DC00094F83D0028B9002084F83C00204600F03B
:101DD00029F8022084F83D00211D206801F00AFF47
:101DE000012084F8480000BF84F83E0001213F2014
:101DF0000155402001554120015542200155432005
:101E0000015500BF00BF012084F844004520015562
:101E1000462001554720015500BF012084F83D00B0
:101E20000020CCE770470000014691F83D000128F2
:101E300001D001207047022081F83D000868C06889
:101E400040F001000B68D860184B0868984213D026
:101E50000868B0F1804F0FD0154B086898420BD03E
:101E6000144B0868984207D0134B0868984203D077
:101E7000124B0868984210D108688068104B00EA3D
:101E80000302062A0FD0B2F5803F0CD00868006824
:101E900040F001000B68186005E00868006840F039
:101EA00001000B6818600020C4E70000002C01400E
:101EB00000040040000800400034014000400140A0
:101EC00007000100704770B504462068C6682068A6
:101ED000056905F00200022819D106F00200022867
:101EE00015D1401F21680861012020772068806992
:101EF00000F0030018B12046FFF7E4FF05E020469C
:101F000000F0F1F8204600F0EFF80020207705F00F
:101F10000400042819D106F00400042815D1C04398
:101F200021680861022020772068806900F44070F1
:101F300018B12046FFF7C6FF05E0204600F0D3F8B1
:101F4000204600F0D1F80020207705F0080008288E
:101F500019D106F00800082815D1C043216808618E
:101F6000042020772068C06900F0030018B12046E3
:101F7000FFF7A8FF05E0204600F0B5F8204600F086
:101F8000B3F80020207705F01000102819D106F0D2
:101F90001000102815D1C04321680861082020775F
:101FA0002068C06900F4407018B12046FFF78AFF2E
:101FB00005E0204600F097F8204600F095F8002054
:101FC000207705F0010048B106F0010030B16FF054
:101FD000010021680861204600F088F805F08000C3
:101FE000802804D005F40050B0F5005F0AD106F057
:101FF0008000802806D16FF40250216808612046D5
:10200000FFF7D3FE05F48070B0F5807F0AD106F0AB
:102010008000802806D16FF4807021680861204616
:10202000FFF7C2FE05F04000402809D106F040004D
:10203000402805D1C04321680861204600F062F8BD
:1020400005F02000202809D106F02000202805D125
:10205000C043216808612046FFF7A8FE05F4801000
:10206000B0F5801F0BD106F48010B0F5801F06D1AB
:102070006FF48010216808612046FFF799FE05F48F
:102080000010B0F5001F0BD106F40010B0F5001FD2
:1020900006D16FF40010216808612046FFF787FE23
:1020A00005F48000B0F5800F0BD106F48000B0F588
:1020B000800F06D16FF48000216808612046FFF789
:1020C00078FE05F40000B0F5000F0BD106F4000017
:1020D000B0F5000F06D16FF40000216808612046BA
:1020E000FFF768FE70BD70477047000010B50446EA
:1020F00003492068884201D1FFF730FB10BD000082
:1021000000480140704700BFFEE7704701468868FD
:1021100000F01F007047024602F1600000EB8103EF
:10212000186800F0F840704701468868C0F3C000A6
:1021300070470146886800F00100704701468868D2
:1021400000F00100704701468868C0F300707047D6
:1021500001468868C0F38000704701468868C0F374
:10216000800070470146C86800F4406008B901204B
:1021700070470020FCE700008168024A1140091DF9
:1021800081607047C0FFFF7F70B500F11404C1F398
:10219000406504EB85031C68C1F304560725B54070
:1021A000AC43C1F3045502FA05F52C431C6070BD25
:1021B000826822F0E0720A438260704710B500F135
:1021C000600404EB81031C6824F0004414431C6089
:1021D00010BD426922F000420A434261704700008C
:1021E00008B50549C96C0143034AD1641146C96C5D
:1021F0000140009100BF08BD0010024008B505492C
:10220000896D0143034A91651146896D0140009132
:1022100000BF08BD0010024008B50549096E014322
:10222000034A11661146096E0140009100BF08BDC6
:1022300000100240F0B502460B46186890FAA0F074
:10224000B0FA80F487E00120A0401D6805EA000193
:1022500000297FD05868012802D0586802281DD173
:102260009868956891FAA1F6B6FA86F67700032683
:10227000BE40B54391FAA1F6B6FA86F6760000FAAA
:1022800006F63543956000BFDD68186856688643DA
:1022900000FB05F73E43566000BF00BF1869D568D4
:1022A00091FAA1F6B6FA86F677000326BE40B5434A
:1022B00091FAA1F6B6FA86F6760000FA06F63543EC
:1022C000D56000BF586802282DD1FF2914D858695D
:1022D000156A91FAA1F6B6FA86F6B7000F26BE4047
:1022E000B54391FAA1F6B6FA86F6B60000FA06F6FC
:1022F0003543156200BF16E05869556A0E0A96FA12
:10230000A6F6B6FA86F6B7000F26BE40B5430E0A0B
:1023100096FAA6F6B6FA86F6B60000FA06F6354341
:10232000556200BF00BF5868156891FAA1F6B6FA69
:1023300086F677000326BE40B54391FAA1F6B6FAB9
:1023400086F6760000FA06F63543156000BF00E019
:1023500000E000BF641C1868E04000287FF473AF01
:10236000F0BD816270472DE9F041DDE90654C1F30B
:10237000090702F4006C47EA0C074FF47F0C0CEAE3
:10238000034C47EA0C072F43274327F000464768D2
:102390004FF4806C0CEA545C40F6FF384CEA080CB1
:1023A0004CF4C04C4CF0807C4CF47F0C4CF0007C26
:1023B0004CF4805C27EA0C0737434760BDE8F081A6
:1023C00030B5024600BF106820F00100106000BF69
:1023D000D1E90203146824F4F85440EA03252C439D
:1023E000146000BF4868106100BF00BF106840F073
:1023F0000100106000BF00BF906820F400409060B2
:1024000000BF8B69086994686FF30A0440EA03050A
:102410002C43946000BF086930B100BF906840F45D
:102420000040906000BF00BF0868136823F44013A9
:102430000343136000BF4869536823F40043034318
:10244000536000BF002030BD2DE9F0410446002557
:10245000C02C2CD100BF17480068204040EA04403F
:10246000B0F5400F18D0A0F54000403820B140280A
:1024700006D080280FD108E001F08AFA054615E061
:1024800000F0B4F800B10C4D10E000F0B7F808B15E
:102490004FF400450AE000BF01F07AFA074601F068
:1024A0003DFA064601F04CFA054600BF00BF28463B
:1024B000BDE8F081881002400024F4002DE9F041CD
:1024C00004460025032C29D1204600F085F8B0F5FC
:1024D000403F18D06FF44031084420B1012806D0A5
:1024E00002280FD108E001F053FA054615E000F08C
:1024F0007DF800B1374D10E000F080F808B14FF4DE
:1025000000450AE000BF01F043FA074601F006FA71
:10251000064601F029FA054600BF57E00C2C29D1E8
:10252000204600F059F8B0F5402F18D0A0F5402013
:10253000001F20B1042806D008280FD108E001F0C0
:1025400027FA054615E000F051F800B1214D10E0E2
:1025500000F054F808B14FF400450AE000BF01F064
:1025600017FA074601F0DAF9064601F0E9F90546DF
:1025700000BF2BE0302C29D1204600F02DF8B0F51B
:10258000401F18D0A0F54010103820B1102806D0F8
:1025900020280FD108E001F0FBF9054615E000F016
:1025A00025F800B10B4D10E000F028F808B14FF409
:1025B00000450AE000BF01F0EBF9074601F0AEF973
:1025C000064601F0BDF9054600BF00BF2846BDE83C
:1025D000F08100000024F400014603480068084030
:1025E00040EA01407047000088100240024800683D
:1025F000C0F38020704700000010024002480068CD
:10260000C0F3400070470000901002400248C068CC
:10261000C0F306207047000000100240034989689B
:1026200021F0F0010143014A91607047001002401F
:1026300001490860704700002400002010B50346DF
:102640000A460021147B21469068014321F48060F2
:10265000546840EA040121F40060146840EA04016F
:1026600021F48050D48940EA040121F40050146917
:1026700040EA040121F48040D46A40EA040121F4D4
:102680007020546940EA040121F08050946940EAC6
:1026900004010E48834202D00D48834213D121F435
:1026A0007000546A40EA040121F08070D46940EA65
:1026B000040121F00070146A40EA040121F0005086
:1026C000946A40EA04015964002010BD002C0140C6
:1026D00000340140016821F0800101607047816889
:1026E00021F080018160704710B5024613682948C7
:1026F00082420BD0B2F1804F08D02748824205D0E9
:102700002648824202D02648824204D123F070003B
:102710004C6840EA04031F48824214D0B2F1804F53
:1027200011D01D4882420ED01C4882420BD01C485A
:10273000824208D01B48824205D01B48824202D008
:102740001A48824204D123F44070CC6840EA040362
:1027500013608868D06200BF0888906200BF0D488F
:1027600082420BD00E48824208D00E48824205D0E9
:102770000D48824202D00D48824203D1086910639D
:1027800000BF00BF00BF506940F00100506100BFB2
:10279000002010BD002C0140000400400008004053
:1027A0000034014000400140004401400048014025
:1027B00070B50246012901D1002425E0042901D188
:1027C000012421E0102901D102241DE0402901D17A
:1027D000032419E0B1F5807F01D1042414E0B1F5A0
:1027E000806F01D105240FE0B1F5805F01D106248F
:1027F0000AE0B1F5804F01D1072405E0B1F5803F33
:1028000001D1082400E009242346064CE55C02F1CE
:10281000180428190468044DEE5C0425B540AC4347
:10282000046070BDC27C0008CC7C000870B5024614
:10283000012901D1002425E0042901D1012421E04E
:10284000102901D102241DE0402901D1032419E0FF
:10285000B1F5807F01D1042414E0B1F5806F01D17E
:1028600005240FE0B1F5805F01D106240AE0B1F53F
:10287000804F01D1072405E0B1F5803F01D1082444
:1028800000E009242346064CE55C02F118042819EF
:102890000468044DEE5C0825B5402C43046070BD0F
:1028A000C27C0008CC7C00082DE9F04106460C46AD
:1028B00015460127B4F5805F21D007DC012C0CD030
:1028C000102C10D0B4F5807F2BD112E0B4F5803FEE
:1028D0001BD0B4F5801F24D11DE02946304600F0FE
:1028E0004DFE07461EE02946304600F099FE074699
:1028F00018E02946304600F0EBFE074612E0294674
:10290000304600F037FF07460CE02946304600F01D
:1029100083FF074606E02946304600F0BFFF074622
:1029200000E000BF00BF3846BDE8F081816370471A
:102930008268024B1A400A4382607047F8BFFEFF6C
:102940004268024B1A400A43426070478FFFFFFD06
:10295000426822F470020A4342607047F8B50446A8
:102960000D4601270026204600F05EF800284ED1D3
:102970002969A868084369690843E9690843216827
:10298000244A114008432060E868616821F44051FE
:102990000143616000BFA869A16821F4407101434F
:1029A000A16000BF1C48844204D10320FFF786FDCC
:1029B000064616E01948844204D10C20FFF77EFD3C
:1029C00006460EE01648844204D13020FFF776FD1B
:1029D000064606E01348844203D1C020FFF734FDC9
:1029E00006465EB1686848B10027686800903146C5
:1029F0002046EB692A6800F01DF800BF2868E16AEC
:102A000021F00F0182B21143E16200BF00BF3846DE
:102A1000F8BD0000F369FFEF0038014000440040BA
:102A200000480040004C00400146086800F00100EA
:102A300070470000F0B51D46059C0B2A26D82CB324
:102A4000B5F5004F15D1D7B2DFF844C05CF8277058
:102A5000B1FBF7F77F0007EB5407B7FBF4F7BBB206
:102A60004FF6F07703EA0706C3F342073E43C6601A
:102A70000CE0D7B2DFF818C05CF82770B1FBF7F7AD
:102A800007EB5407B7FBF4F7BFB2C760F0BD000017
:102A9000947D00088162704700B58BB000200890DB
:102AA00009900A9020216846FDF7B3FC4FF0A04042
:102AB0001F4908604FF44030486000211C48816085
:102AC000C160016141610421816100210177417789
:102AD00001210162002180F82410C162016380F8A5
:102AE0003810C16380F84010FEF74AFA08B1FDF7CC
:102AF00064FD0020089008A90D48FDF79DFD08B170
:102B0000FDF75BFD0B48009006200190002002902D
:102B10000948039004200490002005906946044869
:102B2000FDF710FE08B1FDF748FD0BB000BD000039
:102B3000A80000208000501D00007F4010B5104804
:102B4000104908600020486000210E488160C16083
:102B50000174417481741021416101218161C1615D
:102B6000016241628162C16201630021416381634C
:102B7000C163FEF7B1FB08B1FDF71FFD10BD0000FA
:102B8000006400401401002010B5044A00210448EC
:102B900002F026F90349086010BD0000987C000887
:102BA000253A00080000002000B587B0182101A8D0
:102BB000FDF72FFC2020FFF713FB0420FFF710FB8D
:102BC0000120FFF70DFB0220FFF70AFB1020FFF7A3
:102BD00007FB80213E48FFF7C4FB4FF400414FF054
:102BE0009040FFF7BEFB40213A48FFF7BAFB1020A8
:102BF0000190032002900020059001A93648FFF7BC
:102C000019FB802001900120029000200390049085
:102C1000059001A92E48FFF70DFB4FF4804001906D
:102C2000002002900120059001A92948FFF702FB2E
:102C30004FF40040019000200290059001A9244823
:102C4000FFF7F8FA4FF400400190012002900020B5
:102C500003900490059001A94FF09040FFF7EAFA25
:102C6000082001900220029000200390049005901B
:102C70000620069001A91748FFF7DCFA1020019002
:102C800002200290039000200490059005200690F9
:102C900001A91048FFF7CEFA2020019002200290EF
:102CA00003900020049005900520069001A9094892
:102CB000FFF7C0FA4020019001200290002003900D
:102CC0000490059001A90348FFF7B4FA07B000BDCE
:102CD0000010004800040048000800482DE9F041B9
:102CE0008EB01C2107A8FDF794FB182101A8FDF761
:102CF00090FB4FF480106D4A02EB10610A68040CDF
:102D00000323A3409A43C3B2040CA3401A430A60AE
:102D100000BF042065498839C96C0143634A883A79
:102D2000D1641146C96C0140009100BF00BF800111
:102D30000190022002900390012004900020059051
:102D40000820069001A95A48FFF774FA4FF4007062
:102D50000190022002900390012004900020059031
:102D60000820069001A95248FFF764FA4FF080400E
:102D70004E498839896D01434C4A883A916511461C
:102D8000896D0140009100BF00BF5C21494B1B6869
:102D9000C3F30220052400250346C3F1070CBCF150
:102DA000040F02D94FF0040C01E0C3F1070C674691
:102DB00003F1040CBCF1070F02D24FF0000C01E04C
:102DC000A3F1030C66464FF0010C0CFA07FCACF1C2
:102DD000010C0CEA040C0CFA06FC4FF0010808FA8E
:102DE00006F8A8F1010808EA05084CEA080200BF45
:102DF000002904DB1007030E2F48435407E0100797
:102E0000040E2C480C3001F00F031B1FC45400BFEC
:102E10005C2000280DDB00BF00BF00F01F02012175
:102E200091404209920002F1E022C2F8001100BF75
:102E300000BF00BF002007902048089000200990A4
:102E40000A900B900C900D9007A91D48FFF7B8FA57
:102E500000BF1B48406840F000701949486000BF3F
:102E600000200146164AD26840F2FE739A4340EAB7
:102E700001031A43124BDA6000BF00BF1846C06856
:102E800020F400401946C86000BF00BF0846006833
:102E900020F40020086000BF00BF0846006820F44E
:102EA0000030086000BF0EB0BDE8F081881002401D
:102EB000000800480CED00E000E400E0361262403B
:102EC0000078004010B509480949086000204860B2
:102ED000002107488160C160016101758161C162A3
:102EE000FEF738FD08B1FDF768FB10BD0003014097
:102EF0007801002010B509480949086000204860A1
:102F0000002107488160C160016101758161C16272
:102F1000FEF720FD08B1FDF750FB10BD0403014092
:102F2000B401002010B50948094908600020486034
:102F3000002107488160C160016101758161C16242
:102F4000FEF708FD08B1FDF738FB10BD080301408E
:102F5000F001002000B585B014216846FDF759FA4C
:102F60004FF40030FFF758F90020ADF80000019051
:102F70004FF6FF70029000200390049069460448C9
:102F8000FFF7B2FB0248FFF7A5FB05B000BD00004C
:102F90000044014030B5A1B014211CA8FDF739FA56
:102FA000202114A8FDF735FA302108A8FDF731FAE1
:102FB000182102A8FDF72DFA4FF40060FFF72CF955
:102FC00000F0BEFE054600220F2100F0B7FA0446CD
:102FD00021461A2000F0C4FE1A2000F0A0FE0020B6
:102FE000ADF8700020201D9040F61B101E900020B0
:102FF0001F9020901CA96648FFF776FB6448FFF7F6
:1030000069FB00216248FFF793FC01216048FFF74C
:103010000DFC6020149000201590169017901890C9
:1030200019901A901B9014AA01215948FFF73CFCF3
:1030300001215748FFF7BCFB10215548FFF7F6FB6D
:1030400014AA10215248FFF72FFC10215048FFF717
:10305000AFFB4FF480714E48FFF7E8FB14AA4FF422
:1030600080714B48FFF720FC4FF480714848FFF710
:103070009FFB00214648FFF763FC00214448FFF70F
:1030800067FC4348FFF72BFB0020089009900A904B
:1030900080208DF82C000020ADF82E000C900D90B3
:1030A0000E900F90109011901290139008A938482C
:1030B000FFF7C4FA10203749C96C0143354AD1647F
:1030C0001146C96C0140019100BF00BF0001029090
:1030D0000220039003200490002005900690022017
:1030E000079002A92C48FFF7A5F84FF40070029052
:1030F00002200390032004900020059006900220F7
:10310000079002A92448FFF795F84FF480600290D9
:1031100002200390032004900020059006900220D6
:10312000079002A91C48FFF785F84FF40060029051
:1031300002200390032004900020059006900220B6
:10314000079002A91448FFF775F84FF480500290D9
:103150000220039003200490002005900690022096
:10316000079002A90C48FFF765F84FF40050029051
:103170000220039003200490002005900690022076
:10318000079002A90448FFF755F821B030BD0000B0
:10319000002C0140001002400010004830B585B0FE
:1031A00014216846FDF735F90120FFF727F800F0F4
:1031B000C7FD05460022052100F0C0F9044621465E
:1031C0001C2000F0CDFD1C2000F0A9FD40F6AE2033
:1031D000ADF8000000200190FF2002900020039035
:1031E00069464FF08040FFF77FFA4FF08040FFF7CD
:1031F00071FA00214FF08040FFF79AFB00214FF059
:103200008040FFF79DFB4FF08040FFF768FA05B064
:1032100030BD000030B585B014216846FDF7F9F8DF
:103220000220FEF7EBFF00F08BFD05460022052192
:1032300000F084F9044621461D2000F091FD1D2078
:1032400000F06DFD0D20ADF800000020019040F26F
:10325000F31002900020039069460948FFF744FAF2
:103260000748FFF737FA00210548FFF761FB002107
:103270000348FFF765FB0248FFF731FA05B030BDA0
:103280000004004000B585B014216846FDF7C1F880
:103290004FF40050FEF7C0FF1B20ADF800000020E7
:1032A0000190F920029000200390049069460B4899
:1032B000FFF71AFA0948FFF70DFA00210748FFF750
:1032C00037FB00210548FFF73BFB00210348FFF7D0
:1032D0003FFB0248FFF703FA05B000BD0034014090
:1032E0002DE9F04190B0202108A8FDF792F81821AF
:1032F00002A8FDF78EF84FF440307D49096821EAB5
:10330000104182B211437A4A883AC2F8881000BF4D
:103310004FF480401146096E014311661146096E53
:103320000140019100BF00BF01201146C96C01435B
:10333000D1641146C96C0140019100BF00BF400239
:103340000290022003900490002005900690072030
:10335000079002A94FF09040FEF76CFF4FF4806099
:103360000290022003900490002005900690072010
:10337000079002A94FF09040FEF75CFF25215D4BBE
:103380001B68C3F30220052400250346C3F1070C84
:10339000BCF1040F02D94FF0040C01E0C3F1070C9B
:1033A000674603F1040CBCF1070F02D24FF0000C8A
:1033B00001E0A3F1030C66464FF0010C0CFA07FC88
:1033C000ACF1010C0CEA040C0CFA06FC4FF00108FD
:1033D00008FA06F8A8F1010808EA05084CEA08020C
:1033E00000BF002904DB1007030E4348435407E0E5
:1033F0001007040E3F480C3001F00F031B1FC4548C
:1034000000BF252000280DDB00BF00BF00F01F0219
:10341000012191404209920002F1E022C2F800111C
:1034200000BF00BF00BF002008904FF4E1300990BA
:1034300000200A900B900C900C200D9000200E9014
:103440000F9008A92D48FFF789FA2C48002100BFEA
:1034500000BF00BF00F1080353E8002F61F35F7263
:1034600043E80024002CF5D100BF00BF2348002111
:1034700000BF00BF00BF00F1080353E8003F23F086
:10348000606343EA416200F1080343E80024002C32
:10349000F1D100BF00BF00BF1848006840F00050E5
:1034A0001649086000BF00BF0846406820F49040FD
:1034B00048600846806820F02A00886000BF00BF8E
:1034C0000846006840F00100086000BF00BF00BF70
:1034D0000A48C069C0F340500028F8D000BF074830
:1034E000C069C0F380500028F1D010B0BDE8F08171
:1034F000881002400CED00E000E400E000380140DC
:1035000010B50A480A4908600820087102210848D5
:103510004171C1710021017241728172C172FEF765
:1035200041FB08B1FDF749F810BD0000005C004008
:103530002C02002000BFFEE700BFFEE7F0B5034607
:103540000C4603F00701C1F10700042801D904204B
:1035500001E0C1F107000646081D072801D200203E
:1035600000E0C81E05460120B040401E2040A84093
:103570000127AF407F1E17403843F0BD70B50246AB
:10358000106A20F001001062136A5568946924F0F3
:1035900003041D4E04EA06000E6840EA060423F008
:1035A00002000E6940EA060323F001004E6840EA7B
:1035B0000603164882420BD01548824208D01548AF
:1035C000824205D01448824202D01448824213D16C
:1035D00023F008004E6940EA860323F004008E6859
:1035E00040EA860325F480708E6940EA060525F4DA
:1035F0000070CE6940EA460555609461C868506322
:1036000000BF1362002070BD8FFFFEFF002C014041
:1036100000340140004001400044014000480140A6
:103620002DE9F04104460D46206A20F0100020628A
:10363000266AD4F80480A76927F440771E483840EA
:10364000296840EA012726F02000296940EA01168E
:1036500026F01000696840EA0116184884420BD031
:103660001748844208D01748844205D0164884423F
:1036700002D01648844213D126F08000696940EADE
:10368000811626F04000A96840EA811628F480607F
:10369000A96940EA810828F40060E96940EAC108A4
:1036A000C4F80480A7612046E968FFF73FF9266265
:1036B0000020BDE8F0810000FF8FFFFE002C0140DC
:1036C00000340140004001400044014000480140F6
:1036D00070B50246106A20F480701062136A556853
:1036E000D46924F003041D4E04EA06000E6840EA83
:1036F000060423F400700E6940EA062323F4807068
:103700004E6840EA0623164882420BD01548824292
:1037100008D01548824205D01448824202D014488D
:10372000824213D123F400604E6940EA862323F4D9
:1037300080608E6840EA862325F480508E6940EAD6
:10374000061525F40050CE6940EA46155560D4614F
:10375000C868D06300BF1362002070BD8FFFFEFFFA
:10376000002C014000340140004001400044014071
:103770000048014070B50246106A20F48050106283
:10378000136A5568D46924F440741D4820400E68BB
:1037900040EA062423F400500E6940EA063323F47D
:1037A00080504E6840EA0633164882420BD01648D5
:1037B000824208D01548824205D01548824202D084
:1037C0001448824213D123F400404E6940EA863304
:1037D00023F480408E6840EA863325F480408E6969
:1037E00040EA861525F40040CE6940EAC6155560CA
:1037F000D461C868106400BF1362002070BD00006F
:10380000FF8FFFFE002C01400034014000400140CA
:10381000004401400048014030B50246106A20F4DF
:1038200080301062136A146D164D04EA05000D68AD
:1038300040EA050423F400300D8A40EA054323F4EE
:1038400080308D8840EA05430F4882420BD00F48F4
:10385000824208D00E48824205D00E48824202D0F1
:103860000D48824206D1506820F480308D6940EACC
:10387000052050601465C868956C906400BF1362A1
:10388000002030BD8FFFFEFF002C014000340140BE
:1038900000400140004401400048014030B502466C
:1038A000106A20F480101062136A146D15482040CD
:1038B0000D6840EA052423F400100D8A40EA055300
:1038C00023F480108D8840EA05530F4882420BD0C4
:1038D0000E48824208D00E48824205D00D488242EE
:1038E00002D00D48824206D1506820F480208D69B4
:1038F00040EA852050601465C868D06400BF136238
:10390000002030BDFF8FFFFE002C0140003401403D
:10391000004001400044014000480140014600BF12
:103920000548806800F0F0000009044A105C00F0CF
:103930001F0221FA02F0704700100240C47D000807
:10394000014600BF0648806800F4E060054A02EBCB
:103950001020007800F01F0221FA02F070470000EA
:1039600000100240D47D0008014600BF0648806870
:1039700000F46050054A02EBD020007800F01F02EE
:1039800021FA02F07047000000100240D47D0008C8
:1039900010B500BF0A49896801F00C01042904D060
:1039A000082904D00C2907D103E0064806E00548A1
:1039B00004E000F009F801E0024800BF00BF10BDBC
:1039C000001002400024F40070B500BF1348C06826
:1039D00000F003000546022D02D0032D04D101E0C2
:1039E0000F4C03E00E4C01E00D4C00BF00BFFEF792
:1039F0000DFE60430949C96801F0F001012202EBA4
:103A00001111B0FBF1F10548C06800F0C06002EB95
:103A100050604000B1FBF0F070BD000000100240AB
:103A20000024F40000BF012001F084F9FBE710B589
:103A30004FF0E020006903F077F8012801D002F090
:103A4000C1FC10BDF8B504204F49096821F00F01F1
:103A500001434D4A116000BF00BF00BF4A480068E3
:103A600000F00F000428F8D100BF4848006820F497
:103A7000807046498039C1F8800000BF00BF4448CB
:103A8000006840F480304249086000BF00BF00BFBA
:103A90003F480068C0F340400028F8D000BF3C48D1
:103AA0009830006840F001003949C1F8980000BF23
:103AB00000BF00BF364898300068C0F340000028BF
:103AC000F7D0032030215522002340EA010444EAC4
:103AD00002241C432E4DED682E4E35402C432C4DB8
:103AE000EC6000BF00BF2846C06840F080702946E7
:103AF000C86000BF00BF0846006840F080700860E2
:103B000000BF00BF00BF22480068C0F3406000282B
:103B1000F8D003201E49896821F0030101431C4AA3
:103B2000916000BF8020FEF779FD00BF00BF1848FC
:103B3000806800F00C000C28F8D15520009002E0BD
:103B40000098401E009000980028F9D1FEF766FD0D
:103B500000200F49896821F4E06101430C4A91601B
:103B600000BF00BF1146896821F460510143916094
:103B700000BF0948FEF75CFD0F20FDF70BFE08B102
:103B8000FCF71BFDF8BD00000020024080700040E3
:103B9000001002400C80FFF980FE210A03480068F3
:103BA00040F47000014908607047000088ED00E0B3
:103BB00010B50348006810B10148FEF784F910BD44
:103BC0000805002010B500BF6FF001004FF08041E4
:103BD000086100BF00F056FF10BD000010B500BF27
:103BE0006FF001000249086100BF00F0FFFF10BD47
:103BF0000004004010B502682A4B98420BD0B0F187
:103C0000804F08D0284B984205D0284B984202D0CC
:103C1000274B984203D122F070024B681A43214B84
:103C2000984214D0B0F1804F11D01F4B98420ED063
:103C30001E4B98420BD01E4B984208D01D4B984209
:103C400005D01D4B984202D01C4B984203D122F460
:103C50004072CB681A4322F080034C6943EA0402A5
:103C600002608B68C3620B6883620E4B98420BD074
:103C70000F4B984208D00F4B984205D00E4B9842FC
:103C800002D00E4B984201D10B69036301234361BB
:103C9000036903F001031BB1036923F0010303610E
:103CA00010BD0000002C014000040040000800404E
:103CB0000034014000400140004401400048014000
:103CC00070470346012023F8400F00201880988099
:103CD0001882403B704701464BF68072B1F84000B5
:103CE0009043A1F840000020704700BFFEE703B4F6
:103CF00001984100009850EAC12018BF04204A0DE5
:103D000018BF40F0010040F2FF72B2EB515F08BFF4
:103D100040F00200012808BF052002B070470028CB
:103D20000DDB00BF00BF00F01F02012191404209DE
:103D3000920002F1E022C2F8001100BF00BF7047FC
:103D400002480068C0F30220704700000CED00E05C
:103D500002480068C0F30220704700000CED00E04C
:103D600010B5002804DB0A07130E054A135406E0B9
:103D70000A07140E034A00F00F031B1FD45410BD92
:103D800000E400E018ED00E010B5002804DB0A07AD
:103D9000130E054A135406E00A07140E034A00F0F6
:103DA0000F031B1FD45410BD00E400E018ED00E029
:103DB000EFF3058070472DED020B019820F00040D5
:103DC00001909DED000B02B0704700000000000064
:103DD0002DE9F0412DED020B9FED3D0B2DED028BFA
:103DE0009FED3D8BDDE90254C4F30A50A0F2FF368B
:103DF000142E37DA002E18DA53EC102B9DED020B3F
:103E000051EC100B03F024F953EC182B03F068FD70
:103E100057D2002CA4BF0024254652DA24F00040DB
:103E2000284318BF2E4C4CD01AE02E4820FA06F733
:103E300004EA070028431FD053EC102B9DED020B22
:103E400051EC100B03F004F953EC182B03F048FD70
:103E500037D2002C03DA4FF48010F0400444BC4306
:103E600000252EE0332E07DCA6F114004FF0FF31C1
:103E700021FA00F73D4206D19DED020BBDEC028B0D
:103E800002B0BDE8F08153EC102B9DED020B51EC1C
:103E9000100B03F05BFD53EC182B03F021FD10D247
:103EA000002C0DDA142E08BF641C09D0C6F13400B2
:103EB000012101FA00F02844A84238BF641C0546DD
:103EC000BD43CDE902549DED020BD7E70000000091
:103ED0009C7500883CE4377E000000000000000074
:103EE0000000F0BFFFFF0F0010B52DED040B86B0F2
:103EF0009DED060B10EE100A10EE901A8DED000BE2
:103F0000002818BF0120084320F00040C0F17F6066
:103F100000F1E040C00F21D19DED080B10EE101A0A
:103F200010EE900A8DED000B002918BF0121084307
:103F300020F00040C0F17F6000F1E040C00F0DD1E3
:103F400029490798B1EB400F04BF0698002842D0DA
:103F50000998400004BF089800283CD09DED080B4C
:103F600053EC102B9DED060B51EC100B03F00AFCEB
:103F7000CDE902019DED020B40F2FF7110EE900AB7
:103F80008DED000B31EA105021D00798039900F015
:103F9000004001F00041884219D09DED080B8DEDE5
:103FA000040B9DED020B8DED000B10EE900A0599B0
:103FB00061F31E0005909DED041B9DED020B51EC7D
:103FC000110B53EC102B03F0C1FCCDE902019DED68
:103FD000020B0AB010BD0120FCF74AFA0AB0BDE896
:103FE000104000F05DBC00000000E0FF0000000099
:103FF00010B52F499FED2C1B2DED020B84B00598B9
:1040000020F000408842DCBF00209DED040B32DD33
:104010002849884209D1049840B94FF00100FCF7C3
:1040200027FA00F03DFC06B010BD05DB9DED040B4A
:1040300000F02AFC06B010BD68469DED040B00F0B0
:104040003BF810F0030011D0012818D09DED021BA1
:104050009DED000B02281AD000F04AFA51EC100B2B
:1040600002F0B8FF06B041EC100B10BD9DED021B35
:104070009DED000B012000F06FFB06B010BD9DED23
:10408000021B9DED000B00F033FA06B010BD0120BD
:1040900000F062FB51EC100B02F09CFF06B041EC0B
:1040A000100B10BD00000000000000000000000028
:1040B000FB21E93F0000F07F2DE9F14F04462DED93
:1040C000020B2DED088B8AB09FEDE70B80ED020B04
:1040D000139EE74826F0004585420ADC9DED120B51
:1040E000002084ED000B0AB0BDEC088B03B0BDE8E6
:1040F000F08FE0489FEDE0AB9FEDE1BBA84247DDCC
:10410000E14F9FEDE39B9FEDE48B9DED120B53EC94
:104110001A2B51EC100B002E1CDD03F023FC41EC9C
:10412000100BBD4208D053EC1B2B51EC100B03F0CD
:1041300019FCC4E900010BE053EC192B51EC100BF6
:1041400003F010FC53EC182B03F00CFCC4E9000145
:104150000120C8E702F07CFF41EC100BBD4208D003
:1041600053EC1B2B51EC100B02F072FFC4E9000161
:104170000BE053EC192B51EC100B02F069FF53ECE0
:10418000182B02F065FFC4E900014FF0FF30AAE7E9
:10419000C348A84279DB9DED120B51EC100B00F0E7
:1041A000E9FB41EC180B9FEDC00B53EC102B03F017
:1041B000F1F99FEDBF1B53EC112B02F049FF03F007
:1041C00053F9074603F07FF941EC190B53EC1A2B16
:1041D00003F0E0F953EC182B03F0B8FB41EC180B9B
:1041E00053EC1B2B51EC190B03F0D4F9DFF8C8A2E8
:1041F00041EC100B4FEA15580125FA4453EC102BF3
:1042000051EC180B03F0AEFB032DC4E900013DD0C7
:10421000C1F30A5005EB4511A8EB000011398142AA
:1042200034DA0AEB051BB0EE48AA9BED000BF0EE6A
:1042300068AA53EC102B51EC190B03F0ABF941ECCD
:104240001B0B51EC1A0B53EC1B2B03F08BFB41ECBB
:10425000180B51EC1A0B53EC182B03F083FB53ECA7
:104260001B2B03F07FFB9BED020B41EC1A0B53EC75
:10427000102B51EC190B03F08DF953EC1A2B03F0B2
:1042800071FB41EC100B6D1CB8E70EE0002EA8BFCF
:104290003846BFF628AF94ED000B51EC100B02F03E
:1042A00099FEC4E9000178421DE7C6F3130040F40B
:1042B000801EC6F30A50A0F2F530471100F01F052A
:1042C000C5F12000DDF848B0089000200690079066
:1042D0000520EC467949002D07EB0002794408BF20
:1042E00051F8221009D051F8223001EB8201AB4085
:1042F0004A68089922FA01F11943A1FB0E26A1FB95
:104300000B131A449A4234BF0123002303EB06081F
:104310000CEB8003D3E901A60E448E4234BF012189
:10432000002192448A4411B1924502D903E092459A
:1043300001D2012100E00021C3E901A641444CF86B
:104340002010011EA0F10100C4DC029800F1005011
:10435000850F0298DDE903678000DDF8148003F023
:10436000B2F841EC1A0B304603F0C4F89FED541B31
:1043700053EC112B03F00EF941EC1B0B384603F004
:10438000B9F89FED511B53EC112B03F003F941ECED
:10439000180B404603F0AEF89FED4D1B53EC112B6C
:1043A00003F0F8F841EC190B51EC180B53EC192BF6
:1043B00002F04EFE53EC1B2B02F04AFE53EC1A2B7C
:1043C00002F046FECDE90801002008909DED080BA3
:1043D00053EC1A2B51EC100B03F0C4FA53EC1B2BCB
:1043E00003F0C0FA53EC182B03F0BCFA53EC192B72
:1043F00003F0ACFA9FED381B53EC112B03F0CAF815
:104400009FED370B41EC180B53EC102B9DED080B77
:1044100051EC100B03F0BEF853EC182B02F018FE11
:104420009FED310B41EC180B53EC102B9DED080B5D
:1044300051EC100B03F0AEF853EC182B02F008FE11
:1044400041EC100B139810F0004F06D06D4251EC68
:10445000100B02F0BFFD41EC100B284684ED000B61
:1044600041E6000000000000000000000000000025
:10447000FB21E93F7CD9024000004054FB21F93F79
:104480003163621A61B4D03DFB21F93F00000000A6
:104490000000601A61B4D03D7370032E8A19A33BEB
:1044A000FB2139410000000083C8C96D305FE43F43
:1044B000000000000000E03F123C0000603B0000F4
:1044C000000000000000103E000000000000103C52
:1044D000000000000000103A182D4454FB21F93D63
:1044E0003326A611460B113C00000054FB21F93D78
:1044F00010B52DED040B2DED088B82B0B0EE419A76
:10450000F0EE619A0B9820F000449FED4BABB4F1B4
:10451000795F11DA9DED0A0B51EC100B02F0A4FF4C
:10452000002801BFB0EE4A0AF0EE6A0A02B0BDEC04
:10453000088B04BF04B010BD9DED0A0B53EC102B8B
:1045400051EC100B03F026F841EC180B3C48062107
:10455000B0EE480AF0EE680A784400F081F853ECB7
:10456000182B51EC100B03F015F89DED0A0B41ECE4
:104570001B0B53EC192B51EC100B03F00BF841EC17
:10458000190B53EC1B2B51EC180B03F003F853ECF5
:10459000192B03F0E7F99FED2C0B41EC190B53ECB1
:1045A000102B51EC180B02F0F5FF41EC100B2848D2
:1045B000844210DA53EC192B51EC100B03F0D2F9B2
:1045C00053EC1A2B03F0C2F941EC100B02B0BDEC16
:1045D000088B04B010BD1F48A042BCBF9FED1E1B3E
:1045E0008DED001B06DBA4F500100190002000906B
:1045F0009DED001B51EC100B53EC112B03F0B2F9A5
:104600009DED000B41EC180B53EC102B51EC1A0BE9
:1046100003F0A8F941EC1A0B53EC192B51EC180BD1
:1046200003F0A0F953EC1A2B03F090F941EC100BB6
:10463000CCE7000000000000000000000000F03F98
:104640008438000000000000000000000000E03F8F
:104650003333D33F0000E93F000000000000D23FA9
:1046600070B504462DED028B4D1E00EBC500B0EE7B
:10467000408AF0EE608A90ED000B35F0060017D00E
:1046800053EC182B51EC100B02F084FF41EC100B93
:104690006D1E04EBC50090ED001B51EC100B53ECAC
:1046A000112B02F0D5FC41EC100B35F00600E7D1E0
:1046B000022D36D0042D1CD0062D1CBFBDEC028B64
:1046C00070BD53EC182B51EC100B02F063FF94ED0E
:1046D0000A1B53EC112B02F0BBFC53EC182B02F01D
:1046E00059FF94ED081B53EC112B02F0B1FC41EC87
:1046F000100B53EC182B51EC100B02F04BFF94ED08
:10470000061B53EC112B02F0A3FC53EC182B02F008
:1047100041FF94ED040B53EC102B02F099FC41EC9B
:10472000100B53EC182B51EC100B02F033FF94EDEF
:10473000021B53EC112B02F08BFC53EC182B02F0F4
:1047400029FF94ED001B53EC112B02F081FCBDEC12
:10475000028B41EC100B70BD31B504462DED040BFE
:104760002DED0A8BB0EE41BAF0EE61BA0B989DEDDB
:104770000A0B20F00040B0F1795F0DDA51EC100B1C
:10478000FFF7B5FA042808BF00F09AF89DED0A0B70
:10479000BDEC0A8B05B030BD53EC102B51EC100B67
:1047A00002F0F8FE41EC180B9DED0A0B53EC182BB0
:1047B00051EC100B02F0EEFE41EC190B2C48B0EE60
:1047C000480AF0EE680A05217844FFF749FF9FED9B
:1047D0002ACBB0EE40AAF0EE60AA9CB353EC1C2B9F
:1047E00051EC190B02F0D6FE41EC1C0B53EC1A2BCA
:1047F00051EC190B02F0CEFE9FED210B41EC190B91
:1048000053EC102B51EC1B0B02F0C4FE53EC192B94
:1048100003F0A8F853EC182B02F0BCFE53EC1B2B52
:1048200003F0A0F853EC1C2B03F09CF89DED0A1B41
:1048300053EC112B03F08AF8BDEC0A8B05B041EC68
:10484000100B30BDFFE753EC1A2B51EC180B02F0A4
:10485000A1FE53EC1C2B02F0FBFB53EC192B02F0D6
:1048600099FE9DED0A1B53EC112B02F0F1FBE3E7DF
:104870000C37000000000000495555555555C5BF7F
:10488000000000000000E03F10B553EC102B51EC8D
:10489000100B02F0DDFB41EC100B10BD000000001E
:1048A0009FED050B10B553EC102B51EC100B02F0E3
:1048B00083FC41EC100B10BD000000000000000064
:1048C0009FED050B10B553EC102B51EC100B02F0C3
:1048D00061FE41EC100B10BD000000000000001054
:1048E00010B52DED088B00BF1A484068C0F380005A
:1048F00068B300BF1748006C80B20446204602F03F
:10490000F9FD41EC1B0B9FED140B53EC102B02F047
:1049100041FE41EC1A0B9FED120B53EC102B02F0F1
:104920004BFC41EC190B9FED100B53EC102B02F0DC
:1049300031FE41EC180B02F059FB0D49086000BF35
:1049400004200449086000BF01F0ACF900BFBDECD1
:10495000088B10BD000100506666666666660A40F8
:10496000000000000000B0400000000000002640F1
:104970001400002082B0CDE9000121F00040019038
:104980009DED000B02B051EC100B704708B506A06E
:1049900000680090054800788DF801000221684603
:1049A00000F0C0F808BD0000090000008F7D00087D
:1049B00010B500F051F80220FCF77AFCFFF7E6FF93
:1049C0000220FCF775FC00F035F80220FCF770FCC3
:1049D00000F01EF80220FCF76BFC00F007F8022044
:1049E000FCF766FC802000F079F810BD08B506A041
:1049F00000680090054800788DF8010002216846A3
:104A000000F090F808BD00000B0000008E7D00084B
:104A100008B506A000680090054800788DF80100F0
:104A20000221684600F07EF808BD00000C0000007E
:104A3000907D000808B506A0006800900548007841
:104A40008DF801000221684600F06CF808BD0000F6
:104A50000B0000008D7D000810B58020054988619D
:104A600000BF3220FCF724FC80200249886200BF8E
:104A700010BD00000010004810B5802000F02EF896
:104A800010BD00001248008800EE100AB8EE400A7F
:104A9000DFED100AB4EEE00AF1EE10FA03DBFF20BE
:104AA0000D49087005E00A48008810B901200A493C
:104AB000087007480088084991F900100844044923
:104AC000088008884FF08041486300BF70470000AD
:104AD0000400002000004C43060000203EB50446C0
:104AE0000294012102A800F01DF80C484FF000715B
:104AF00001230022CDE900108E210948FDF733FC87
:104B000000BF00BF06488069C0F380000028F8D0CD
:104B100000BF0348406AC0B23EBD000000240080D0
:104B2000007800407CB505460C460F48010323463B
:104B30000022CDE900108E210C48FDF714FC002066
:104B40000DE000BF00BF09498969C1F34001002998
:104B5000F8D0295C054A916200BF411CC8B2A0424E
:104B6000EFDB00207CBD00000020008000780040CA
:104B7000FCF700FEFEF766FFFEF716F8FDF7DEFF16
:104B8000FEF7ACF8FEF79EF9FEF7B4F9FEF7CAF9A6
:104B9000FEF700FAFEF7DEF9FEF7A2FBFEF7FEFADB
:104BA000FEF770FBFEF736FBFDF776FFFEF7A8FC7D
:104BB000FFF7FEFE00F0CEF8FDF7E6FF00F0E0F8AC
:104BC00011E0FFF759FF044621460748FDF762FF51
:104BD00000210548FDF75EFFFFF7D8FE4FF4FA709D
:104BE000FCF766FB00BFECE70038014010B52DED87
:104BF000028BB2EE080AB0EE408A4FF400404FF04C
:104C00009042516920EA010201EA000342EA0342AC
:104C10004FF090439A6100BF9FED070A28EE000A0B
:104C2000F0EE400A0548B0EE481AB5EE000A00F072
:104C300039F8BDEC028B10BDCDCCCC3D355A000807
:104C400010B52DED068BB0EE408A18EE100A02F07A
:104C500073FF41EC1A0B9FED101BB0EE4A0AF0EE09
:104C60006A0AFFF741F9B0EE409AF0EE609A51EC13
:104C7000190B02F0BBF908EE900AF5EEC08AF1EECE
:104C800010FA04DBB0EE680ABDEC068B10BD9FED98
:104C9000040A38EE800AF7E700000060FB211940A3
:104CA000DB0FC94010B52DED088B84B0F0EE408AC3
:104CB000B0EE609AB0EE418A04461B4890ED000ABF
:104CC0001A48D0ED000A08EEA00AF0EE409A164805
:104CD000C0ED009A01AA02A903A8F0EE481A9FEDC0
:104CE000141AF0EE690AB0EE490AA0479DED010AD8
:104CF000C0EE080AB0EE60AA9DED020AC0EE080AF6
:104D0000F0EE60AA9DED030AC0EE080AB0EE60BAAC
:104D1000B0EE4A1AF0EE6A0AB0EE4B0A00F0CAFF93
:104D200004B0BDEC088B10BD080000200C00002072
:104D30000000000070B50546FFF73AF810B16FF0BB
:104D4000050404E0002415B1284601F05FF920466F
:104D500070BD000010B5FFF72BF810B16FF005041F
:104D600009E00648006820B90120044908600024D1
:104D700001E04FF0FF34204610BD00007800002015
:104D800070B5FFF715F810B16FF005041FE011487A
:104D90000068012819D100BF801F0021002804DB12
:104DA0000A07130E0C4A135406E00A07150E0B4AA5
:104DB00000F00F031B1FD55400BF00BF02200549A0
:104DC000086001F09FF9002401E04FF0FF34204615
:104DD00070BD00007800002000E400E018ED00E065
:104DE0002DE9FF4780468946144600200390FEF7D0
:104DF000DFFF00284ED1B8F1000F4BD080261825D8
:104E00008246471E44B3206808B1D4F800A0A069C8
:104E100000B1A5692DB1382D03D8207900F001002B
:104E200018B1002004B0BDE8F087606908B160697E
:104E30008608A06840B1E0685C2805D3206918B1F5
:104E4000606908B1012708E0A06830B9E06820B9BE
:104E5000206910B9002700E00027012F0CD121693B
:104E6000A0684B463246CDE900510290514640467B
:104E700001F0FCFD03900DE067B903A8B2B24B4608
:104E80005146CDE90050404601F0BEFD012801D059
:104E9000002003900398C5E72DE9F04105460E4632
:104EA0001648076816480068001D00F027FF681CB8
:104EB00038B936B112480168091D124800F074FF74
:104EC0001AE07C190E4800684460BC4207D20C48C6
:104ED0000168091D0C48006800F04CFF0CE0084810
:104EE0000168091D0948006800F044FF084800688F
:104EF000844201D206480460BDE8F0813C000020F5
:104F000028000020440A0020300000202C0000204F
:104F10005800002010B5044600F052FF24480068F5
:104F2000401C234908602348006840B921480460B8
:104F30000846006801280DD100F0FCF90AE01E487F
:104F4000006838B91B480068C06AE16A884201D825
:104F50001848046019480068401C18490860084651
:104F6000006860641649E06A0968884202D91449F9
:104F7000E06A0860E16A01EB8101124A02EB8100FC
:104F8000211D00F011FF00F045FF0B48006868B1DB
:104F900008480068C06AE16A884207D24FF0805032
:104FA00009490860BFF34F8FBFF36F8F10BD00003A
:104FB0003800002028000020440000205400002079
:104FC000400000209405002004ED00E008B500F04A
:104FD000F7FE12480068E8B9114800F0BBFE11481E
:104FE00000F0B8FE0E48104908600E480F490860EE
:104FF00000200F4B0F4A102100900A2001F0FCF90D
:10500000064908600846006820B10BA10348006803
:1050100000F0C0FF00F0FEFE08BD00006C000020A4
:10502000580A00206C0A002064000020680000205C
:10503000800A0020D00A0020546D72510000000048
:1050400010B516E000F0BCFE0C48C068C468201D16
:1050500000F054FE0A480068401E094908600948EB
:105060000068401E0749086000F0D4FE204600F0AA
:105070005FF8044800680028E4D110BD300A002021
:10508000380000203400002070B504460D46206C26
:1050900070B1216CE0680144E160D4E902108842FB
:1050A00001D32168E1602846226CE168FBF764F9CE
:1050B00070BD2DE9F04104460F4615464FF000083B
:1050C000A66B206C48B9206800282CD1A06801F09C
:1050D000E3FD80460020A06025E07DB93946226CC2
:1050E0006068FBF749F9216C606808446060D4E9A6
:1050F0000101884217D32068606014E03946226CB1
:10510000E068FBF739F9216CE068411AE160216839
:10511000E068884203D2216CA068411AE160022D48
:1051200001D106B1761E701CA0634046BDE8F08137
:1051300010B5044694F8590030B9206B00F088FE91
:10514000204600F085FE1AE094F85900012803D1AA
:10515000204600F07DFE12E094F85900022801D1AB
:10516000012000E0002050B900BF502080F31188DA
:10517000BFF34F8FBFF36F8F00BF00BFFEE710BDBF
:105180000146084A126812680AB9012200E00022AA
:105190000A600A6822B9034A1268D268106800E0FF
:1051A000002070476400002030B54FF4406317487A
:1051B00000F007042CB1C01D20F00700134C041BA5
:1051C0001B1B0246124C22600024114D6C60D0184B
:1051D000083820F007000F4C206000240D4D2D688A
:1051E0006C600C4D2D682C601146441A4C60094CC3
:1051F00024680C60084D4C682C60084D4C682C608D
:105200004FF00044064D2C6030BD000028120020F5
:105210007C000020840000208C00002088000020FA
:105220009800002000BFFFF70BFF06480068012828
:10523000F9D94FF0805004490860BFF34F8FBFF396
:105240006F8FF0E79405002004ED00E02DE9F041B8
:1052500006460D4617469846069C0DB9246000E0A8
:105260002760E66325640121204601F035F984F8C2
:105270004C80BDE8F0812DE9F05F82460E469046F5
:105280009B460A9F0C9C4FEA8801A522206BFBF7E6
:10529000B8F8A8F10100216B01EB800929F007099A
:1052A00009F0070008B9012000E0002050B900BF54
:1052B000502080F31188BFF34F8FBFF36F8F00BF73
:1052C00000BFFEE786B1002507E0715D04F1340000
:1052D0004155705D00B902E06D1C102DF5D300BF83
:1052E00000214320015502E0002084F83400382FCB
:1052F00000D33727E762E76400202065201D00F017
:1053000036FD04F1180000F032FD2461C7F13800C9
:10531000A06164620020606584F858005A465146D6
:10532000484600F071FB20600B9808B10B980460B0
:10533000BDE8F09F10B5002407E004EB84010F4A9C
:1053400002EB810000F006FD641C382CF5D30C48FC
:1053500000F000FD0B4800F0FDFC0B4800F0FAFCEB
:105360000A4800F0F7FC0A4800F0F4FC0448094938
:10537000086004480849086010BD0000940500203A
:10538000F4090020080A00201C0A0020300A00202E
:10539000440A00202C0000203000002010B50146F7
:1053A000164800E0006803688B42FBD3024643685E
:1053B00013448B4204D143684C6823444360014644
:1053C0000A464B6813440468A34211D10C4C03688D
:1053D0002468A34208D04B680468646823444B6087
:1053E00003681B680B6005E0054B1B680B6001E060
:1053F00003680B60884200D0016010BD7C00002073
:10540000840000202DE9F04104460D4616461F4653
:105410004FF0000865602461B5420CD8F01BA1690B
:10542000884202D34FF0010811E0211D09480068AD
:1054300000F0A0FC0BE0BE4204D2BD4202D34FF00C
:10544000010804E0211D0448006800F093FC404678
:10545000BDE8F081680000206400002070B50546BA
:1054600000F0AEFCA86B08B9012400E0002400F0B5
:10547000D1FC204670BD70B5054600F0A1FCA86BBC
:10548000E96B884201D1012400E0002400F0C2FC55
:10549000204670BDF8B505460F461A480068C0683A
:1054A000C468201D00F02AFC94F8280000F00400D5
:1054B000E8B1A06941192B463A462046FFF7A2FF02
:1054C000D8B1002003462A4601460090204601F04C
:1054D0003FFD064656B900BF502080F31188BFF348
:1054E0004F8FBFF36F8F00BF00BFFEE705E094F85A
:1054F000280020F0010084F828002046216A88470F
:10550000F8BD000064000020F0B587B0A0E003986B
:10551000002811DA04AE56B900BF502080F311887C
:10552000BFF34F8FBFF36F8F00BF00BFFEE7D6E919
:105530000020B168904700BF03980028E6DB059C77
:10554000606908B9012000E0002010B9201D00F0BA
:10555000D5FB02A800F0DEF8054603980A2875D2AC
:10556000DFE800F009050739416306083A4200BF49
:1055700000BF00BF00BF94F8280040F0010084F88D
:1055800028000498A269811803462A462046FFF79E
:1055900039FFF8B12046216A884794F8280000F0C6
:1055A0000400B8B1002000900498A16942180023BB
:1055B0001946204601F0CCFC074657B900BF5020E1
:1055C00080F31188BFF34F8FBFF36F8F00BF00BF11
:1055D000FEE700BF3BE000BF94F8280020F0010088
:1055E00084F8280033E000BF94F8280040F0010060
:1055F00084F828000498A061A06908B1012000E0A7
:10560000002050B900BF502080F31188BFF34F8FA6
:10561000BFF36F8F00BF00BFFEE7A06941192B46A3
:105620002A462046FFF7EEFE11E094F8280000F02D
:10563000020018B9204600F00BFC05E094F82800A1
:1056400020F0010084F8280001E0FFE700BF00BF60
:10565000002203A90448006801F0DCF800287FF468
:1056600056AF07B0F0BD00006C000020F8B505464D
:105670000C4600F0A3FD684600F04CF80646009882
:1056800020BB44B9B54206D801F0A4FB31462846F8
:10569000FFF700FF1CE03CB10E480068006808B945
:1056A000012000E000200446A91B22460A480068A9
:1056B00000F086FC01F08EFB50B94FF08050074996
:1056C0000860BFF34F8FBFF36F8F01E001F082FBE3
:1056D000F8BD0000680000206C00002004ED00E030
:1056E0000A490968096809B9012100E0002121B1CE
:1056F0004FF0FF31064A116006E004490968C968A5
:10570000C868034A41681160704700002C000020FF
:105710005800002070B5044601F016FA0546074807
:105720000068854204D200F00BF80120206001E0FF
:105730000020206001480560284670BD74000020EC
:105740002DE9F84334E025480068C068056823481F
:105750000068C068C468201D00F0D0FA2046216AA5
:10576000884794F8280000F0040008B3A06946199F
:10577000AE4207D966602461211D1848006800F018
:10578000F9FA15E0002003462A460146009020461B
:1057900001F0DEFB074657B900BF502080F31188A7
:1057A000BFF34F8FBFF36F8F00BF00BFFEE700BF97
:1057B0000A480068006808B9012000E000200028BD
:1057C000C1D00648D0F80080054800680349086049
:1057D0000348C0F80080BDE8F883000064000020A2
:1057E000680000200E480068401C08B9012000E055
:1057F000002050B900BF502080F31188BFF34F8FB5
:10580000BFF36F8F00BF00BFFEE700BF502080F3E3
:105810001188BFF34F8FBFF36F8F00BF00BFFEE74C
:105820009C00002008B500BF6846FFF7A9FC0446AD
:1058300020460099FFF71AFFFFF766FEF4E770B500
:10584000044600F0BDFA94F9455010E0606A08B9CA
:10585000012000E0002038B904F1240001F06EFAC4
:1058600018B100F00DFC00E003E0681E45B2002D09
:10587000ECDC00BFFF2084F8450000F0CBFA00F01C
:105880009FFA94F9445010E0206908B9012000E023
:10589000002048B904F1100001F050FA08B100F0FE
:1058A000EFFB681E45B200E001E0002DECDC00BF1C
:1058B000FF2084F8440000F0ADFA70BD2DE9F041FE
:1058C00004464FF0000800F079FC4948006808B928
:1058D000FFF76AFC474800682040002870D1D4B127
:1058E000083404F00700B0B104F00700C0F108006C
:1058F000044404F0070008B9012000E0002050B97A
:1059000000BF502080F31188BFF34F8FBFF36F8F1C
:1059100000BF00BFFEE7002C52D037480068844229
:105920004ED8364E3046056801E02E462D68686830
:10593000A04202D228680028F7D12D48006885428D
:105940003ED0306800F10808286830606868001BA5
:10595000102819D92F1907F0070008B9012000E015
:10596000002050B900BF502080F31188BFF34F8F43
:10597000BFF36F8F00BF00BFFEE76868001B786051
:105980006C603846FFF70AFD1B4968680968081A09
:10599000194908600846006819490968884203D215
:1059A0001548006816490860124968680968084384
:1059B00068600020286013480068401C1149086096
:1059C00001F008FA08F0070008B9012000E0002003
:1059D00050B900BF502080F31188BFF34F8FBFF341
:1059E0006F8F00BF00BFFEE74046BDE8F0810000BA
:1059F0008400002098000020880000207C00002007
:105A00008C00002090000020001F4FF08073036086
:105A1000001F21F001030360001F054B03601438D1
:105A20000260001F6FF0020303602038704700001F
:105A3000E55700082DE9F0412DED108B84B0B0EE54
:105A400040DAB0EE60BAB0EE41EAF0EE61BA054677
:105A50000E461746B5EEC0DAF1EE10FA05D29FED0C
:105A60008A0A3BEE000AB0EE40BA1DEE100A02F0C0
:105A700063F841EC1F0BB0EE4F0AF0EE6F0AFEF731
:105A80009AF9B0EE40CAF0EE60CA51EC1C0B01F07E
:105A9000ADFA0DEE100A7BEE0E0A9FED7C1A70EE49
:105AA000810AB0EE600AFFF7CBF8B0EE40BA9FED86
:105AB000780ACBEE000A10EE908A404602F03CF8DD
:105AC000CDE902019DED020BFEF782F9B0EE40CA6E
:105AD000F0EE60CA9FED6F0B53EC102B51EC1C0BDA
