:020000040800F2
:10000000082600203D0300086D480008FB33000867
:1000100069480008E9070008635400080000000070
:100020000000000000000000000000007D02000849
:10003000ED07000800000000D90200087D03000859
:100040005703000857030008570300085703000828
:100050005703000857030008570300085703000818
:100060005703000857030008570300085703000808
:1000700057030008570300085703000857030008F8
:100080005703000800000000050700085703000898
:1000900057030008570300085703000857030008D8
:1000A000570300083D4F0008194F00085703000888
:1000B00057030008514F0008694F00085703000814
:1000C00057030008570300085703000857030008A8
:1000D0005703000839540008570300085703000865
:1000E0005703000857030008570300085703000888
:1000F00057030008570300085703000800000000DA
:10010000000000005703000800000000570300082B
:1001100057030008000000005703000857030008B9
:100120005703000857030008570300085703000847
:1001300057030008000000000000000057030008FB
:1001400057030008570300080000000000000000EB
:10015000000000000000000000000000000000009F
:10016000000000000000000000000000570300082D
:10017000570300080000000000000000000000001D
:10018000000000005703000800000000000000000D
:10019000000000000000000000000000000000005F
:1001A000000000000000000057030008570300088B
:1001B000FF33000857030008570300080000000041
:1001C00000000000570300080000000000000000CD
:1001D000570300085703000800F002F800F03EF84B
:1001E0000AA090E8000C82448344AAF10107DA4592
:1001F00001D100F033F8AFF2090EBAE80F0013F0A6
:10020000010F18BFFB1A43F001031847A87B000039
:10021000C87B0000103A24BF78C878C1FAD85207CA
:1002200024BF30C830C144BF04680C607047000070
:100230000023002400250026103A28BF78C1FBD8EF
:10024000520728BF30C148BF0B6070471FB507F089
:10025000CFFC00F03FF91FBD10B510BD00F01CFA37
:100260001146FFF7F3FF05F01BFB00F03AFA03B469
:10027000FFF7F2FF03BC00F03FFA00002C4B1968B7
:100280000868B0E8F04F80F30988BFF36F8F4FF034
:10029000000080F3118870470000000008480068E3
:1002A000006880F308884FF0000080F3148862B67D
:1002B00061B6BFF34F8FBFF36F8F00DF00BF00BF8A
:1002C00008ED00E0DFF80C00016841F47001016006
:1002D000704700BF88ED00E0EFF30980BFF36F8F38
:1002E000134B1A681EF0100F08BF20ED108A20E98A
:1002F000F04F106009B44FF0500080F31188BFF345
:100300004F8FBFF36F8F06F06FFD4FF0000080F34B
:10031000118809BC19680868B0E8F04F1EF0100F8A
:1003200008BFB0EC108A80F30988BFF36F8F704765
:1003300034000020EFF30580704700000948804733
:1003400009480047FEE7FEE7FEE7FEE7FEE7FEE7B7
:10035000FEE7FEE7FEE7FEE704480549054A064BCF
:1003600070470000054F0008D90100080820002050
:1003700008260020082200200822002030B410B5F2
:100380000348804730BCAE4630BC024800470000FE
:10039000055B0008814D000800BF704710B54C1088
:1003A00084EA530404D54042C1F1000138BF491E1C
:1003B0001B4204D55242C3F1000338BF5B1E00F05C
:1003C0009BF814F0804F04D04042C1F1000138BFC7
:1003D000491E14F0004F04D05242C3F1000338BF4D
:1003E0005B1E10BD032A40F2308010F0030C00F0B9
:1003F000158011F8013BBCF1020F624498BF11F85F
:1004000001CB00F8013B38BF11F8013BA2F1040217
:1004100098BF00F801CB38BF00F8013B11F003038F
:1004200000F0E180083AC0F0088051F8043B083A37
:1004300051F804CBA0E80810F5E7121D5CBF51F895
:10044000043B40F8043BAFF30080D20724BF11F80F
:10045000013B11F801CB48BF11F8012B24BF00F874
:10046000013B00F801CB48BF00F8012B704702F0B8
:10047000FF0343EA032242EA024200F0E8B84FF0E9
:10048000000200B5134694469646203922BFA0E8E4
:100490000C50A0E80C50B1F12001BFF4F7AF0907F0
:1004A00028BFA0E80C5048BF0CC05DF804EB8900E1
:1004B00028BF40F8042B08BF704748BF20F8022B24
:1004C00011F0804F18BF00F8012B7047704770473C
:1004D0007047000070B5064C7C44064D7D4403E037
:1004E000206820448047241DAC42F9D170BD000033
:1004F000F8780000F878000053EA020C00F06980F8
:100500002DE9F04B4FF00006002B1FBFB3FA83F527
:1005100003FA05F424FA05F65E4012BF1643B2FA58
:1005200082F502FA05F4C5F120051EBF22FA05FC8A
:1005300044EA0C04203556EA044C4FEA144418BF30
:10054000641C4FF000084FF00009904271EB030C5F
:1005500039D3002919BFB1FA81F701FA07F6B0FAC9
:1005600080F700FA07F6C7F120071EBF20FA07FC44
:1005700046EA0C062037B6FBF4FCA7EB0507103F54
:1005800007F01F0BCBF120060CFA0BFB2CFA06F63A
:1005900044BFB3460026202FA4BF5E464FF0000B99
:1005A0005BEA060C08BF4FF0010B19EB0B09ABFB24
:1005B000027C48EB0608C01B06FB02CC0BFB03CCFD
:1005C00071EB0C01C1E70B46024641464846BDE8C7
:1005D000F08B13B54FF000004FF00001AFF3008037
:1005E000BDE81C40704710B5203AC0F00B80B1E860
:1005F0001850203AA0E81850B1E81850A0E8185058
:10060000BFF4F5AF5FEA027C24BFB1E81850A0E860
:10061000185044BF18C918C0BDE810405FEA827C7A
:1006200024BF51F8043B40F8043B08BF7047D20791
:1006300028BF31F8023B48BF11F8012B28BF20F832
:10064000023B48BF00F8012B70474FF0000204291D
:10065000C0F0128010F0030C3FF413AFCCF1040C87
:10066000BCF1020F18BF00F8012BA8BF20F8022B25
:10067000A1EB0C01FFF705BF5FEAC17C24BF00F8C6
:10068000012B00F8012B48BF00F8012B7047000038
:1006900000487047A41F00207546FFF7F9FFAE46DB
:1006A00005006946534620F00700854618B020B57E
:1006B000FFF752FEBDE820404FF000064FF0000764
:1006C0004FF000084FF0000B21F00701AC46ACE8FA
:1006D000C009ACE8C009ACE8C009ACE8C0098D4667
:1006E000704710B50446AFF300802046BDE81040C7
:1006F000FFF7BDBD7047000001491820ABBEFEE703
:100700002600020010B504F001FF034800F07EFF50
:10071000024800F07BFF10BD08010020740100209A
:1007200038B5044600200090206802F0A1FE0028A1
:100730004FD1206880682849084048B1E06D40F0FA
:100740001000E065206E40F001002066012038BDF9
:10075000206802F055FE00BF2048806800F0E0707D
:1007600000F4000080B11E4800681E49B0FBF1F0A3
:10077000401C00EB40008000009002E00098401E0A
:10078000009000980028F9D101F01AFD05461AE002
:10079000206802F06DFE10B9206802F031FE01F011
:1007A0000FFD401B02280ED92068006800F00100F0
:1007B00048B9E06D40F01000E065206E40F00100A7
:1007C00020660120C3E72068006800F001000028CF
:1007D000DED00020BBE700003F0000800003005097
:1007E00030000020400D030000BFFEE7704772B6E6
:1007F00000BFFEE710B5194901640368D3F88030E3
:1008000023F4F814838E44EA03430468C4F8803068
:1008100001F1700343640368D3F8803023F07064FF
:1008200090F8383044EA03630468C4F8803001F17A
:10083000B003836401F5C473C36401F518730365E1
:1008400001F51E7343650A4602E000231360121D82
:1008500001F554739A42F8D310BD000000A4004083
:10086000704700002DE9FC5F05460C460020019012
:1008700000900027686900B100BFFE49E068884227
:1008800000D000E000BF00BF95F85800012802D159
:100890000220BDE8FC9F012085F8580000BF686970
:1008A00010B1206A01281ED1606809284ED1A06AC3
:1008B00060B194F8280000F07C002168C1F38461E5
:1008C00040EA4120E16A40EA010703E02068C0F302
:1008D000846047022868C06CE749084038432968AB
:1008E000C8646F6632E0A86E90B9216AA9660020DC
:1008F0006866A06A50B1206A401E94F8281001F082
:100900007C010843E16A40EA010701E0206A471ED2
:10091000207900F01F010020884087432068C0F341
:100920008460217901F01F0188400743A86E401EB2
:10093000A866686E38436866A86E38B92868C06CC7
:10094000CD490840696E08432968C864286802F0E8
:1009500080FDD8B994F8250070B994F826004005B8
:1009600094F8241040EA01502968C96821F4401124
:1009700008432968C86009E02868C06820F440106E
:1009800094F8261040EA41502968C860286802F0AF
:1009900083FD8246286802F05CFD8146BAF1000FB3
:1009A0007ED1B9F1000FFBD1A06A08B1E06A88B925
:1009B00094F82500012806D12868C06840F000702E
:1009C0002968C86017E02868C06820F000702968AE
:1009D000C86010E094F82500012806D1E86D40F0C9
:1009E0002000E8650120019005E02868C06820F03B
:1009F00000702968C86094F8300001280CD1606B41
:100A000040F00200A16B08432968096921F4FF71D5
:100A100008432968086105E02868006920F00200A1
:100A200029680861A068B0F1004F0AD1216800224E
:100A3000286802F053FD4FF00041286802F08AFD5B
:100A400008E0A2682168286802F048FD00212868B3
:100A500002F080FD60692968C968C1F3C1014900DD
:100A600000FA01F82069042840D02868226821692A
:100A700000F1600C0CEB8103D3F800C0DFF8FCB18F
:100A80000CEA0B0C02F0F84B4BF0004B4BEA080B56
:100A90004CEA0B0CC3F800C000BF2868A26900E054
:100AA000CCE0216900F1600C0CEB8103D3F800C0AD
:100AB0002CF0807C4CEA020CC3F800C000BF286810
:100AC000227F2169012A01D1520600E0002213464B
:100AD00000F1600C0CEB8102D2F800C02CF0007C1D
:100AE0004CEA030CC2F800C000BFA7E00021286850
:100AF00002F09CFCC0F3120030B90021286802F01B
:100B000095FCC0F3846007E00021286802F08EFCA9
:100B100090FAA0F0B0FA80F02168C1F3120119B97F
:100B20002168C1F3846104E0216891FAA1F1B1FA6E
:100B300081F1884204D100221146286802F0F9FCB4
:100B40000121286802F072FCC0F3120030B90121C3
:100B5000286802F06BFCC0F3846007E0012128687C
:100B600002F064FC90FAA0F0B0FA80F02168C1F3C2
:100B7000120119B92168C1F3846104E0216891FA76
:100B8000A1F1B1FA81F1884204D100220121286843
:100B900002F0CFFC0221286802F048FCC0F31200EA
:100BA00030B90221286802F041FCC0F3846007E0FC
:100BB0000221286802F03AFC90FAA0F0B0FA80F026
:100BC0002168C1F3120119B92168C1F3846104E0FD
:100BD000216891FAA1F1B1FA81F1884204D1002291
:100BE0000221286802F0A5FC0321286802F01EFCFF
:100BF000C0F3120030B90321286802F017FCC0F3DB
:100C0000846007E00321286802F010FC90FAA0F04D
:100C1000B0FA80F02168C1F3120119B92168C1F35B
:100C2000846104E0216891FAA1F1B1FA81F188426E
:100C300004D100220321286802F07BFC286802F01E
:100C40001CFC002873D12868E2682168D0F8B03015
:100C5000C1F3120C23EA0C0302F0180BDFF820C0DA
:100C60002CFA0BFC0CEA010C43EA0C03C0F8B03080
:100C700000BF07E000007F400040100400F0FF03C9
:100C8000FFFF07007849E068884250D12368C3F32A
:100C900012031BB92368C3F3846304E0236893FA47
:100CA000A3F3B3FA83F35B1C03F01F03092B3FD8B4
:100CB0002368C3F312031BB92368C3F3846304E0FE
:100CC000236893FAA3F3B3FA83F35B1C03F01F03C7
:100CD0004FF0010C0CFA03FC2368C3F312031BB999
:100CE0002368C3F3846304E0236893FAA3F3B3FA9D
:100CF00083F35B1C03F01F034CEA836C2368C3F38C
:100D000012031BB92368C3F3846304E0236893FAD6
:100D1000A3F3B3FA83F35B1C03F01F0303EB43035A
:100D20004FF0000B4BEA03534CEA03033FE043E070
:100D30002368C3F312031BB92368C3F3846304E07D
:100D4000236893FAA3F3B3FA83F35B1C03F01F0346
:100D50004FF0010C0CFA03FC2368C3F312031BB918
:100D60002368C3F3846304E0236893FAA3F3B3FA1C
:100D700083F35B1C03F01F034CEA836C2368C3F30B
:100D800012031BB92368C3F3846304E0236893FA56
:100D9000A3F3B3FA83F35B1C03F01F030A3B03EBDB
:100DA00043034FF0007B4BEA03534CEA030319461D
:100DB000A268286802F092FB2C492068084050B3D2
:100DC00000BF2B48806800F0E07600BF294920680A
:100DD000884203D02849206888421DD106F40000CB
:100DE000D0B92868B0F1A04F37D146F400012048AF
:100DF00002F08EFB214800682149B0FBF1F0801C15
:100E000000EB40008000009002E00098401E00903F
:100E100000980028F9D120E01A49206888420CD1B6
:100E200006F0807048B918492868884215D046F005
:100E300080710F4802F06CFB0FE014492068884273
:100E40000BD106F4800040B90F492868884204D0CD
:100E500046F48001064802F05BFB00BF002085F8E5
:100E6000580000BF019814E500007F400000088092
:100E700000030050000021C31000C090300000208B
:100E8000400D0300000052C700010050000084CB59
:100E9000704770472DE9F041044600BF5248806812
:100EA00000F01F000546206802F0D3FA10B10220BE
:100EB000BDE8F0812068C06800F000472068C06C81
:100EC00000F4C07030B92FB9E06D40F02000E0654B
:100ED0000120EDE700BF94F85800012801D102205D
:100EE000E6E7012084F8580000BF2046FFF718FC11
:100EF0000646002E70D1E06D00F4807020B1206EA7
:100F000020F00800206601E000202066E06D42F23B
:100F10000101884340F48050E065344920688842EC
:100F200002D14FF0A04000E020682168884200D044
:100F30001DB9E06D20F48010E06560202168086034
:100F400000BF002084F8580000BF2068C06800F48B
:100F5000001028B12068406840F480602168486033
:100F6000A06908280CD12068406820F02000216882
:100F700048602068406840F04000216848600CE00C
:100F80002068406820F04000216848602068406880
:100F900040F020002168486000BF00BF134920686E
:100FA000884202D14FF0A04000E0206821688842CA
:100FB00004D01DB1062D01D0072D07D1206802F005
:100FC0003EFA70B9206802F049FA0AE0E06D40F498
:100FD0008010E06505E0FFE700BF002084F85800BE
:100FE00000BF304664E700000003005000010050DD
:100FF000704770472DE9F0439BB004460E464FF012
:101000000008306800B100BF00BF94F85800012804
:1010100003D102201BB0BDE8F083012084F8580002
:1010200000BF0020179018902068B0F1A04F02D1A7
:101030003148009001E000200090009850B9E06D28
:1010400040F02000E06500BF002084F8580000BF99
:101050000120DFE7009802F01FFA0746206802F03F
:101060001BFAD8BBD7BB254D306800B394F83800C5
:10107000716841EA4030A96821F460410843A860E2
:101080004FF0A04002F0F9F981461B4802F0F5F953
:1010900049EA0009B9F1000F27D1B1683068084367
:1010A000A96840F61F7291430843A8601DE0A86834
:1010B00020F46040A8604FF0A04002F0DEF98146C5
:1010C0000D4802F0DAF949EA0009B9F1000F0CD134
:1010D000A86840F61F718843A86006E0FFE7E06D4E
:1010E00040F02000E0654FF0010800BF002084F8C8
:1010F000580000BF40468DE700010050000300503B
:101100002DE9F84F05460C464FF0000A00200090EC
:10111000FE49E068884200D000E000BF00BF95F8BB
:101120005800012802D10220BDE8F88F012085F87F
:10113000580000BF286802F0AAF900287DD129686C
:10114000D4E9002001F1300CC0F3012B0CEB8B0330
:10115000D3F800C000F01F0E4FF01F0B0BFA0EFB70
:101160002CEA0B0C00F01F0BC2F3846E0EFA0BFE80
:101170004CEA0E0CC3F800C000BF286802F087F9E3
:101180008146286802F060F98046B9F1000F64D109
:10119000B8F1000FFBD1A068B0F1004F0AD121686F
:1011A0000022286802F086F94FF00041286802F01A
:1011B000CBF908E0A2682168286802F07BF90021D9
:1011C000286802F0C1F960692968C968C1F3C101E2
:1011D000490000FA01F7206904283FD028682268F6
:1011E000216900F1600C0CEB8103D3F800C0DFF83B
:1011F00020B30CEA0B0C02F0F84B4BF0004B4BEA1F
:10120000070B4CEA0B0CC3F800C000BF2868A269AA
:10121000216900F1600C0CEB8103D3F800C02CF0C5
:10122000807C4CEA020CC3F800C000BF2868227F13
:101230002169012A02D1520601E0C6E100221346CB
:1012400000F1600C0CEB8102D2F800C02CF0007CA5
:101250004CEA030CC2F800C000BFA7E000212868D8
:1012600002F0DBF8C0F3120030B90021286802F068
:10127000D4F8C0F3846007E00021286802F0CDF8BC
:1012800090FAA0F0B0FA80F02168C1F3120119B908
:101290002168C1F3846104E0216891FAA1F1B1FAF7
:1012A00081F1884204D100221146286802F036F903
:1012B0000121286802F0B1F8C0F3120030B9012111
:1012C000286802F0AAF8C0F3846007E001212868CA
:1012D00002F0A3F890FAA0F0B0FA80F02168C1F310
:1012E000120119B92168C1F3846104E0216891FAFF
:1012F000A1F1B1FA81F1884204D1002201212868CC
:1013000002F00CF90221286802F087F8C0F31200FD
:1013100030B90221286802F080F8C0F3846007E049
:101320000221286802F079F890FAA0F0B0FA80F073
:101330002168C1F3120119B92168C1F3846104E085
:10134000216891FAA1F1B1FA81F1884204D1002219
:101350000221286802F0E2F80321286802F05DF813
:10136000C0F3120030B90321286802F056F8C0F328
:10137000846007E00321286802F04FF890FAA0F09B
:10138000B0FA80F02168C1F3120119B92168C1F3E4
:10139000846104E0216891FAA1F1B1FA81F18842F7
:1013A00004D100220321286802F0B8F8286802F06E
:1013B0005FF8002872D12868E2682168D0F8B03060
:1013C000C1F3120C23EA0C0302F0180BDFF844C13E
:1013D0002CFA0BFC0CEA010C43EA0C03C0F8B03009
:1013E00000BF4A49E068884258D12368C3F312031A
:1013F0001BB92368C3F3846304E0236893FAA3F35F
:10140000B3FA83F35B1C03F01F03092B3ED8236858
:10141000C3F312031BB92368C3F3846304E0236896
:1014200093FAA3F3B3FA83F35B1C03F01F034FF0AB
:10143000010C0CFA03FC2368C3F312031BB92368E5
:10144000C3F3846304E0236893FAA3F3B3FA83F34A
:101450005B1C03F01F034CEA836C2368C3F3120385
:101460001BB92368C3F3846304E0236893FAA3F3EE
:10147000B3FA83F35B1C03F01F0303EB43034FF04A
:10148000000B4BEA03534CEA030347E02368C3F322
:10149000120323B92368C3F3846305E043E02368A0
:1014A00093FAA3F3B3FA83F35B1C03F01F034FF02B
:1014B000010C0CFA03FC2368C3F312031BB9236865
:1014C000C3F3846304E0236893FAA3F3B3FA83F3CA
:1014D0005B1C03F01F034CEA836C2368C3F3120305
:1014E0001BB92368C3F3846304E0236893FAA3F36E
:1014F000B3FA83F35B1C03F01F030A3B03EB4303C4
:101500004FF0007B4BEA035306E0000000007F40F1
:1015100000F0FF03FFFF07004CEA03031946A2682F
:10152000286801F0C7FF2F492068084050B300BF6A
:101530002D48806800F0E07600BF2C492068884282
:1015400003D02B49206888421DD106F40000D0B991
:101550002868B0F1A04F3ED146F40001224801F0C6
:10156000D1FF244800682449B0FBF1F0401C00EB97
:1015700040008000009002E00098401E009000981B
:101580000028F9D127E01D49206888420CD106F0D7
:10159000807048B91A49286888421CD046F080718A
:1015A000114801F0AFFF16E016492068884212D1B9
:1015B00006F4800078B91249286888420BD046F4B6
:1015C0008001094801F09EFF05E0E86D40F0200031
:1015D000E8654FF0010A00BF002085F8580000BF01
:1015E0005046A1E50000088000030050000021C320
:1015F0001000C09030000020400D0300000052C7D2
:1016000000010050000084CB704770472DE9F84F6F
:101610000446002000902068056820684668C54898
:1016200001F0F6FE074605F00200022811D106F08F
:10163000020002280DD1E06D00F0100018B9E06D35
:1016400040F40060E0652046FFF70AF902202168B7
:10165000086005F00400042803D106F00400042803
:1016600007D005F0080008285FD106F00800082818
:101670005BD1E06D00F0100018B9E06D40F400702F
:10168000E065206801F00DFF002848D0AA492068D5
:10169000884202D14FF0A04000E0206821688842D3
:1016A00004D01FB1052F01D0092F03D12068D0F835
:1016B0000C800AE0A0492068884202D14FF0A04087
:1016C00000E020688346DBF80C8008F40050B0F599
:1016D000005F24D02068006800F0080008281ED1B0
:1016E000206801F0D4FE90B92068406820F00C001A
:1016F00021684860E06D20F48070E065E06D00F4E2
:10170000805060B9E06D40F00100E06507E0E06DF9
:1017100040F01000E065206E40F001002066204699
:10172000FFF772FF0C202168086005F020002028D8
:1017300003D106F02000202807D005F04000402803
:1017400072D106F0400040286ED1E06D00F010002C
:1017500018B9E06D40F40050E0652068C16C01F4F8
:10176000C07109B9012100E000218A4600BF20684C
:1017700001F097FE814670492068884202D14FF0FF
:10178000A04000E020682168884204D01FB1062FE5
:1017900001D0072F03D12068D0F80C800AE06649F9
:1017A0002068884202D14FF0A04000E020688346C4
:1017B000DBF80C80BAF1000F30D008F0007028B1CF
:1017C000B9F1000F2AD008F4005038BB2068006837
:1017D00000F04000402821D108F40010F0B9206842
:1017E00001F032FE90B92068406820F06000216866
:1017F0004860E06D20F48050E065E06D00F480709A
:1018000060B9E06D40F00100E06507E0E06D40F098
:101810001000E065206E40F0010020662046FFF7D2
:1018200037FB60202168086005F0800080280DD11A
:1018300006F08000802809D1E06D40F48030E0653A
:10184000204600F0A9F980202168086005F4807026
:10185000B0F5807F0FD106F48070B0F5807F0AD19B
:10186000E06D40F40030E0652046FFF7C1FB4FF427
:1018700080702168086005F40070B0F5007F0FD11A
:1018800006F40070B0F5007F0AD1E06D40F48020CE
:10189000E0652046FFF7ADFB4FF40070216808605B
:1018A00005F0100010282AD106F01000102826D1CB
:1018B000E06B10B90120009010E047B100BF1D4857
:1018C000806800F4604048B10120009006E0206884
:1018D000C06800F0010008B10120009000980128C4
:1018E0000AD1E06D40F48060E065206E40F00200B7
:1018F00020662046FFF789FE10202168086005F465
:101900008060B0F5806F13D106F48060B0F5806F11
:101910000ED1E06D40F48040E065206E40F008009C
:1019200020664FF48060216808602046FFF7B1FA16
:10193000BDE8F88F00030050000100502DE9F84386
:1019400004464FF000080020009014B90120BDE8C3
:10195000F883606920B194F82400012800D100BF09
:10196000E06D30B9204600F019F90020206684F8B7
:10197000580020688168C1F3407131B120688168E6
:101980007E4A1140816000BF00BF206801F07AFDEF
:10199000B0B9206881687A4A114041F08051816075
:1019A00000BF784800687849B0FBF1F0401C400067
:1019B000009002E00098401E009000980028F9D1A5
:1019C000206801F05FFD48B9E06D40F01000E0656F
:1019D000206E40F0010020664FF00108206801F001
:1019E00056FD0646E06D00F01000002877D1002E6D
:1019F000FCD1E06D20F4807040F00200E0652068CA
:101A000001F036FDB0B94FF0A04001F031FD814644
:101A10005E4801F02DFD49EA0009B9F1000F09D136
:101A200060685B49896821F47C110143584A9160E0
:101A300000BF00BF607FE16B41EA4030E1680843CE
:101A4000A168084394F8241040EA014594F8240062
:101A5000012803D1208D401E45EA4045E06A28B1A7
:101A6000A08D00F47870216B084305432068C0689E
:101A70004849084028432168C8602068006920F070
:101A80004060616B084321680861206801F0DCFC5C
:101A90000746002E50D1EFBB207F002141EA803164
:101AA00094F8380041EA40052068C06844F2020119
:101AB000884328432168C860206988B1206800698C
:101AC00040F48030216808612068D0F8C0006FF3CE
:101AD0000D00216908432168C1F8C0000EE045E00F
:101AE0002068006920F48030216808612068D0F8FF
:101AF000C0006FF30D002168C1F8C00094F84000E9
:101B0000012813D1606C40F00101A06C0843E16C26
:101B1000084300E010E0216D08432168096940F2A4
:101B2000FC72914308432168086105E02068006960
:101B300020F00100216808616069012809D120684E
:101B4000006B20F00F00216A491E084321680863DA
:101B500005E02068006B20F00F0021680863E06D4D
:101B600020F0020040F00100E06505E0E06D40F08B
:101B70001000E0654FF001084046E8E6C0FFFF5F57
:101B8000C0FFFF7F30000020400D03000001005027
:101B9000000300500740F0FF7047000010B586B00A
:101BA0000446142101A8FEF76AFC2068B0F1A04F9A
:101BB00051D1554801F0E4FE54480068401C534997
:101BC00008600846006801280DD100BF5048C06C6D
:101BD00040F400504E49C8640846C06C00F4005000
:101BE000009000BF00BF00BF4948C06C40F0040037
:101BF0004749C8640846C06C00F00400009000BF6C
:101C000000BF00BF0846C06C40F00200C864084630
:101C1000C06C00F00200009000BF00BF06200190E1
:101C2000032002900020039001A93A4800F0E2F955
:101C300002200190032002900020039001A9364861
:101C400000F0D8F900220521122000F069FB1220D3
:101C500000F052FB55E031492068884251D12A48B2
:101C600001F08EFE29480068401C2849086008469B
:101C7000006801280DD100BF2548C06C40F4005019
:101C80002349C8640846C06C00F40050009000BFAF
:101C900000BF00BF1E48C06C40F004001C49C8646F
:101CA0000846C06C00F00400009000BF00BF00BFF9
:101CB0000846C06C40F00100C8640846C06C00F0E3
:101CC0000100009000BF00BF182001900320029087
:101CD0000020039001A90F4800F08CF90120019029
:101CE000032002900020039001A94FF0904000F0E3
:101CF00081F900220521122000F012FB122000F0D1
:101D0000FBFA06B010BD000002001C0020000020FD
:101D10000010024000080048000400480001005084
:101D200070B5044600F04CFA06462546681C10B112
:101D300004480068054400BF00F042FA801BA84236
:101D4000FAD370BD2C00002070B504460CB90120F8
:101D500070BD81492068884200D100BFA068B0F5FD
:101D6000407F00D100BF94F85C0028B9002084F8BF
:101D70005D00204600F0F4F82068806920F0100033
:101D80002168886100F01CFA05460DE000F018FAA1
:101D9000401B0A2808D9206E40F00100206603206D
:101DA00084F85C000120D3E72068806900F0080017
:101DB0000828EBD02068806940F001002168886124
:101DC00000F0FEF905460DE000F0FAF9401B0A2884
:101DD00008D9206E40F001002066032084F85C00E2
:101DE0000120B5E72068806900F001000028EBD0F1
:101DF0002068806940F002002168886156492068A7
:101E0000884202D1554960680860207C012806D1CB
:101E10002068806920F040002168886105E0206822
:101E2000806940F0400021688861607C012806D10B
:101E30002068806940F480402168886105E020685E
:101E4000806920F4804021688861A07C012806D147
:101E50002068806920F480502168886105E020684E
:101E6000806940F48050216888612068806920F48E
:101E70004070A1680843216888612068806920F06B
:101E8000A400216888612068006920F010002168A2
:101E90000861E068012806D12068806940F00400EC
:101EA0002168886120E0E068F0B1E068022815D080
:101EB0002068806940F0800021688861206800699E
:101EC00040F0100021680861E06803280CD1206808
:101ED000806940F020002168886105E02068806901
:101EE00040F0200021688861207E401E4106E069A4
:101EF000401E41EA0020216A491E0843A18A491E6A
:101F000040EA01402168C861A068B0F5407F0FD168
:101F1000A06A401EE16A491E40EA0121206B401E72
:101F200041EA0011A08C401E41EA00402168C860CF
:101F30002068D0F8C000E16B08432168C1F8C000F8
:101F40002046FEF757FC0020A0652066012084F89B
:101F50005C000020FCE600000064004000650040DA
:101F600010B586B00446142101A8FEF788FA1E4970
:101F70002068884235D14FF000701C49096821F073
:101F800040710143194A883AC2F8881000BF00BF67
:101F90001046806D40F00070114688650846806DDF
:101FA00000F00070009000BF00BF00BF0846C06C8A
:101FB00040F00200C8640846C06C00F002000090C7
:101FC00000BF00BF4FF4407001900220029000203B
:101FD0000390022004900920059001A9044800F014
:101FE00009F806B010BD00000064004088100240EF
:101FF0000004004878B502460B460021CAE00126DD
:102000008E401D6805EA0604002C73D01D7905F08A
:102010000305012D04D01D7905F00305022D13D110
:1020200090684E000325B540A8434E00DD68B540DA
:1020300028439060506801258D40A8431D79C5F361
:1020400000158D40284350601D7905F00305032DD0
:1020500009D0D0684E000325B540A8434E009D68C6
:10206000B5402843D0601D7905F00305022D13D13A
:10207000CE0802F1200555F826004D07EE0E0F257B
:10208000B540A8434E07F60E1D69B5402843CE085B
:1020900002F1200545F8260010684E000325B540E2
:1020A000A8431D7905F003054E00B5402843106094
:1020B0005D6805F44035002D6BD000BF384D2D6EA6
:1020C00045F00105364E356635462D6E05F00105A5
:1020D000009500BF00BF4FEAB6358E0855F82600C0
:1020E0008D072E0F0F25B540A843B2F1904F02D1B6
:1020F00000251AE04DE02B4DAA4201D1012514E044
:10210000294DAA4201D102250FE0284DAA4201D152
:1021100003250AE0264DAA4201D1042505E0254DFC
:10212000AA4201D1052500E006258E07360FB540ED
:102130002843214D8E0845F82600204D2868A043ED
:102140005D6805F4801505B120431C4D28602D1DE8
:102150002868A0435D6805F4001505B12043174DBC
:102160002D1D2860154D2D1F2868A0435D6805F4BE
:10217000003505B12043114D2D1F28602D1F286803
:10218000A0435D6805F4803505B120430B4D083D43
:102190002860491C1D68CD40002D7FF430AF78BD0C
:1021A000001002400004004800080048000C0048ED
:1021B00000100048001400480800014008040140D5
:1021C00001480068704700002400002003480068B0
:1021D0000349096808440149086070472400002049
:1021E0002C00002010B50024032000F0D7F80F20A9
:1021F00000F008F808B1012401E000F051F8204691
:1022000010BD0000F0B587B004460026002700BFCF
:102210001E48006E40F480201C4908660846006E87
:1022200000F48020009000BF00BF01A902A800F0C8
:10223000BFFA00F0E5FA06461548B6FBF0F0471E77
:1022400014481549086040F2E7311348C1604760FF
:1022500000210161816000F0F0FC054695B90E484F
:1022600000F06CFD05466DB91A2000F045F8102C01
:1022700007D2002221461A2000F052F807480460D5
:1022800000E00125284607B0F0BD00000010024024
:1022900040420F0000480140840600202800002032
:1022A00008B500BF1348006E40F0010011490866F0
:1022B0000846006E00F00100009000BF00BF00BFA4
:1022C0000846806D40F0805088650846806D00F0BB
:1022D0008050009000BF00BF00220F21901E00F030
:1022E0001FF800F059FB022000F060FB00F056FAE6
:1022F00008BD0000001002400146084600280DDB22
:1023000000BF00BF00F01F0301229A4043099B0059
:1023100003F1E023C3F8002100BF00BF00BF7047F6
:102320002DE9F05F80460D46164603F0B5F80746E6
:1023300039462A46334601F00700C0F1070ABAF1D0
:10234000040F02D94FF0040A01E0C0F1070AD14698
:1023500000F1040ABAF1070F02D24FF0000A01E0BF
:10236000A0F1030AD4464FF0010A0AFA09FAAAF1C9
:10237000010A0AEA020A0AFA0CFA4FF0010B0BFAF8
:102380000CFBABF1010B0BEA030B4AEA0B042146F1
:10239000404603F09DF8BDE8F09F000000BF00F04C
:1023A0000702064B19684FF6FF031940044B0B4315
:1023B00043EA0221014B196000BF70470CED00E0B9
:1023C0000000FA0538B5044600250CB9012038BDD7
:1023D00094F83A00052801D10120F8E794F83A0072
:1023E000022801D10120F2E7A06800B900BFA0696E
:1023F00000B100BFA068402800D100BFE06A1028EB
:1024000000D100BF00BF4248006E40F001004049CB
:1024100008660846006E00F00100009000BF00BF93
:1024200094F83A0010B9002084F83900204600F0F2
:1024300073F8A068402802D0A068602826D12068E0
:10244000006820F01000E16A084321680860D4E9C0
:102450000101084321690843217D012901D10902B5
:1024600000E000210843616A0843A16A0843218E05
:1024700040EAC14194F8340041EA006021680968EB
:10248000244A114008432168086027E0206800685A
:1024900020F01000E16A084321680860D4E90101D6
:1024A0000843E168084321690843217D012901D1DE
:1024B000090200E000210843616A0843A16A084359
:1024C000218E40EAC14194F8340041EA006021685D
:1024D0000968104A11400843216808602068806933
:1024E00000F0004058B9D4E906010843216A0843C6
:1024F0002168896921F03F0108432168886194F8C7
:102500003A0010B9012084F83A0028465FE700003D
:1025100000100240113E00E010B586B004461421C0
:1025200001A8FDF7ACFF2E492068884219D100BFF1
:102530002C48C06C40F001002A49C8640846C06CB1
:1025400000F00100009000BF00BF0E2001900320AA
:1025500002900020039001A94FF09040FFF74AFD40
:102560003BE01F49091D2068884219D100BF1D4862
:10257000C06C40F001001B49C8640846C06C00F004
:102580000100009000BF00BFE020019003200290F6
:102590000020039001A94FF09040FFF72BFD1CE0B5
:1025A0000F4908312068884217D100BF0D48C06C20
:1025B00040F002000B49C8640846C06C00F00200FD
:1025C000009000BF00BF0720019003200290002070
:1025D000039001A90448FFF70DFD06B010BD0000EF
:1025E00000030140001002400004004801460020A2
:1025F00009B9012014E091F83A20052A01D10120FF
:102600000EE091F83A20012A09D10A68126842F0D6
:1026100001020B681A60042281F83A2000E00120D0
:102620007047024611680120C2F8D002002082F8EB
:10263000C80231F8540F40F001000880088840F0CB
:10264000020021F854090020704770B504460CB907
:10265000012070BD94F8910228B9002084F89002FE
:10266000204600F077F8032084F89102206802F0F9
:10267000EEFE00252AE0012105EB850204F11000A1
:1026800000EBC200417005EB850104F1100000F879
:102690003150002105EB850200EBC200C17005EB53
:1026A000850204F1100000EBC200016105EB850218
:1026B00004F1100000EBC200416105EB850204F15A
:1026C000100000EBC2008161681CC5B22079A842ED
:1026D000D1DC00252AE0002105EB850204F5A87075
:1026E00000EBC200417005EB850104F5A87000F80D
:1026F0003150002105EB850200EBC200C17005EBF3
:10270000850204F5A87000EBC200016105EB8502AB
:1027100004F5A87000EBC200416105EB850204F5E9
:10272000A87000EBC2008161681CC5B22079A84284
:10273000D1DC94E8070002F080FE00202073012025
:1027400084F89102A07A012802D12046FFF769FFA0
:1027500000207EE708B50F4A0168914218D1002198
:102760000D4A126822F040620A430B4B883BC3F8C3
:10277000882000BF00BF1946896D41F400011A4648
:1027800091651146896D01F40001009100BF00BF01
:1027900008BD0000005C00408810024003488068CB
:1027A00040F480400149886070470000007000409C
:1027B0000F2202600D4A926802F0030242600B4A47
:1027C000926802F0F0028260084A926802F4E062C5
:1027D000C260064A926802F46052D2080261044A5A
:1027E000126802F00F020A607047000000100240F9
:1027F00000200240014800687047000030000020BF
:1028000000B5FFF7F7FF05498968C1F3C221044A03
:10281000515C01F01F01C84000BD000000100240E3
:10282000A07D000870B504460CB9012070BD606A37
:1028300038B96068B0F5827F00D105E00021E16120
:1028400002E00021216161610021A16294F85D0034
:1028500028B9002084F85C00204600F061F80220CE
:1028600084F85D002068006820F04000216808605E
:10287000E068B0F5E06F01D9002501E04FF4805524
:10288000E068B0F5706F05D0E068B0F5E06F01D09A
:102890000021A162A08800F48270218901F4044122
:1028A0000843217C01F002010843217D01F0010170
:1028B0000843218B01F400710843217F01F03801A6
:1028C00008432021095D01F080010843218D01F4B6
:1028D00000510843216808600421A06901EA104002
:1028E00094F8241001F01001084394F8341001F01A
:1028F00008010843A18901F47061084305F480517F
:102900000843216848602068C06920F4006021689D
:10291000C86100202066012084F85D00002085E762
:1029200010B586B00446142101A8FDF7A8FD17498B
:102930002068884227D100BF1548806D40F40040D0
:10294000134988650846806D00F40040009000BF80
:1029500000BF00BF0846C06C40F00200C8640846D3
:10296000C06C00F00200009000BF00BF3820019052
:10297000022002900020039004900620059001A9F7
:102980000448FFF737FB06B010BD0000003C0040D4
:1029900000100240000400480348006B20F00100D2
:1029A0000149086370470000000001400349096BBA
:1029B00021F002010143014A116370470000014008
:1029C000704770477047000010B50346002200BFF3
:1029D00093F83C00012801D1022010BD012083F8AA
:1029E0003C0000BF22F0FF00CC6840EA040222F461
:1029F00040708C6840EA040222F480604C6840EA2F
:102A0000040222F400600C6840EA040222F48050C0
:102A10000C6940EA040222F400504C6940EA0402C6
:102A200022F480400C6B40EA040222F470200C8BEC
:102A300040EA044222F08050CC6940EA0402124C81
:102A40001868A04203D0114C1868A04213D122F498
:102A500070000C8D40EA045222F080700C6A40EA4B
:102A6000040222F000704C6A40EA040222F0005096
:102A7000CC6A40EA04021868426400BF002083F870
:102A80003C0000BF00BFA8E7002C0140003401401B
:102A9000704770477047000030B502460B4600BFD4
:102AA00092F83C00012801D1022030BD012082F8BB
:102AB0003C0000BF022082F83D00106841681068A9
:102AC00084681D4D1068A84203D01C4D1068A842B0
:102AD00003D121F470015868014319480140186876
:102AE000014310684160144D1068A84213D010686B
:102AF000B0F1804F0FD0134D1068A8420BD0124D8B
:102B00001068A84207D00D4D1068A84203D00F4DA1
:102B10001068A84205D124F0800498680443106826
:102B20008460012082F83D0000BF002082F83C0054
:102B300000BF00BFB9E70000002C01400034014095
:102B40008FFFFFFD000400400008004000400140EE
:102B500070B504460D4615B994F844000BE0042DF9
:102B600002D14520005D06E0082D02D14620005D1F
:102B700001E04720005D012801D0012070BD1DB992
:102B8000022084F844000EE0042D03D102214520E8
:102B9000015508E0082D03D102214620015502E02D
:102BA00002214720015504222946206802F05FFADD
:102BB0002068406C40F4004021684864184920684F
:102BC000884213D02068B0F1804F0FD0154920689B
:102BD00088420BD014492068884207D013492068E6
:102BE000884203D012492068884210D1206880684A
:102BF000104900EA0106062E0FD0B6F5803F0CD032
:102C00002068006840F001002168086005E0206845
:102C1000006840F00100216808600020AEE7000075
:102C2000002C014000040040000800400034014036
:102C30000040014007000100704710B504460CB980
:102C4000012010BD94F83D0028B9002084F83C0014
:102C5000204600F029F8022084F83D00211D20685C
:102C600002F08EF9012084F8480000BF84F83E008D
:102C700001213F20015540200155412001554220AE
:102C800001554320015500BF00BF012084F84400D6
:102C900045200155462001554720015500BF012020
:102CA00084F83D000020CCE770470000014691F811
:102CB0003D00012801D001207047022081F83D002D
:102CC000184B0868984213D00868B0F1804F0FD0B5
:102CD000154B086898420BD0144B0868984207D0EF
:102CE000134B0868984203D0124B0868984210D1E1
:102CF00008688068104B00EA0302062A0FD0B2F57C
:102D0000803F0CD00868006840F001000B68186034
:102D100005E00868006840F001000B6818600020BA
:102D2000CAE70000002C01400004004000080040F9
:102D3000003401400040014007000100014691F8C5
:102D40003D00012801D001207047022081F83D009C
:102D50000868C06840F001000B68D860184B08682C
:102D6000984213D00868B0F1804F0FD0154B086817
:102D700098420BD0144B0868984207D0134B086850
:102D8000984203D0124B0868984210D108688068B6
:102D9000104B00EA0302062A0FD0B2F5803F0CD098
:102DA0000868006840F001000B68186005E00868DA
:102DB000006840F001000B6818600020C4E70000C4
:102DC000002C014000040040000800400034014095
:102DD0000040014007000100704770B504462068BC
:102DE000C6682068056905F00200022819D106F0BE
:102DF0000200022815D1401F2168086101202077B8
:102E00002068806900F0030018B12046FFF7E4FF56
:102E100005E0204600F022F9204600F039FA0020B3
:102E2000207705F00400042819D106F004000428D6
:102E300015D1C0432168086102202077206880698D
:102E400000F4407018B12046FFF7C6FF05E02046A9
:102E500000F004F9204600F01BFA0020207705F06E
:102E60000800082819D106F00800082815D1C04329
:102E700021680861042020772068C06900F0030001
:102E800018B12046FFF7A8FF05E0204600F0E6F85D
:102E9000204600F0FDF90020207705F010001028F2
:102EA00019D106F01000102815D1C043216808611F
:102EB000082020772068C06900F4407018B12046CF
:102EC000FFF78AFF05E0204600F0C8F8204600F032
:102ED000DFF90020207705F0010048B106F001007D
:102EE00030B16FF0010021680861204600F078FAE7
:102EF00005F08000802804D005F40050B0F5005F94
:102F00000AD106F08000802806D16FF402502168B3
:102F100008612046FFF755FD05F48070B0F5807F0D
:102F20000AD106F08000802806D16FF480702168F5
:102F300008612046FFF744FD05F04000402809D114
:102F400006F04000402805D1C043216808612046B2
:102F500000F052FA05F02000202809D106F02000E8
:102F6000202805D1C043216808612046FFF72AFDCB
:102F700005F48010B0F5801F0BD106F48010B0F579
:102F8000801F06D16FF48010216808612046FFF78A
:102F900080FD05F40010B0F5001F0BD106F4001001
:102FA000B0F5001F06D16FF40010216808612046BB
:102FB000FFF76EFD05F48000B0F5800F0BD106F42D
:102FC0008000B0F5800F06D16FF4800021680861A1
:102FD0002046FFF75FFD05F40000B0F5000F0BD1B0
:102FE00006F40000B0F5000F06D16FF40000216870
:102FF00008612046FFF720FE70BD000010B586B0C6
:103000000446142101A8FDF73AFA114920688842C4
:103010001CD100BF0F48C06C40F010000D49C864BF
:103020000846C06C00F01000009000BF00BF4FF4D5
:103030007C50019002200290002003900320049015
:103040000220059001A90448FEF7D4FF06B010BD88
:10305000002C0140001002400010004870472DE98C
:10306000F04104460D461646002700BF94F83C0088
:10307000012802D10220BDE8F081012084F83C0043
:1030800000BF0C2E51D005DC4EB1042E1ED0082EF0
:103090007AD133E0102E60D0142EF9D175E0294694
:1030A000206801F0F5FF2068806940F00800216881
:1030B00088612068806920F00400216888612068A8
:1030C0008069296908432168886178E02946206879
:1030D00002F034F82068806940F40060216888615B
:1030E0002068806920F48060216888612068806998
:1030F000296940EA01202168886160E0294620684A
:1031000002F076F82068C06940F008002168C861C4
:103110002068C06920F004002168C8612068C06987
:10312000296908432168C86149E02946206802F0FE
:10313000B9F82068C06940F400602168C86120685F
:10314000C06920F480602168C8612068C06929696D
:1031500040EA01202168C86131E02946206802F078
:10316000FBF82068006D40F00800216808652068C1
:10317000006D20F00400216808652068006D296951
:103180000843216808651AE017E02946206802F024
:103190001BF92068006D40F4006021680865206814
:1031A000006D20F48060216808652068006D296941
:1031B00040EA01202168086501E0012700BF00BF47
:1031C00000BF002084F83C0000BF384653E710B52C
:1031D00004460CB9012010BD94F83D0028B9002028
:1031E00084F83C00204600F029F8022084F83D00D5
:1031F000211D206801F0C4FE012084F8480000BFB2
:1032000084F83E0001213F20015540200155412016
:103210000155422001554320015500BF00BF012048
:1032200084F84400452001554620015547200155AA
:1032300000BF012084F83D000020CCE738B50446EB
:103240001149206888421DD100BF1048006E40F42B
:1032500000600E4908660846006E00F400600090A9
:1032600000BF00BF002205211920FFF759F81920DF
:10327000FFF742F800220F211A20FFF751F81A2019
:10328000FFF73AF838BD0000002C01400010024062
:103290007047000070B504460D4615B994F83E001D
:1032A00015E0042D02D13F20005D10E0082D02D171
:1032B0004020005D0BE00C2D02D14120005D06E0B6
:1032C000102D02D14220005D01E04320005D012865
:1032D00001D0012070BD1DB9022084F83E001AE023
:1032E000042D03D102213F20015514E0082D03D104
:1032F0000221402001550EE00C2D03D10221412076
:10330000015508E0102D03D102214220015502E0B1
:1033100002214320015501222946206801F096FE32
:103320002749206888420FD02649206888420BD060
:1033300025492068884207D024492068884203D064
:1033400023492068884201D1012000E0002028B1F3
:103350002068406C40F400402168486418492068A7
:10336000884213D02068B0F1804F0FD019492068EF
:1033700088420BD018492068884207D0114920683C
:10338000884203D010492068884210D120688068A4
:10339000124900EA0106062E0FD0B6F5803F0CD088
:1033A0002068006840F001002168086005E020689E
:1033B000006840F001002168086000208AE70000F2
:1033C000002C014000340140004001400044014015
:1033D00000480140000400400008004007000100D0
:1033E00010B5044603492068884201D1FEF7EEFE7D
:1033F00010BD000000480140704700BFFEE7704765
:103400008168024A1140491C81607047C0FFFF7FFC
:103410000146886800F01F007047024602F1600014
:1034200000EB8103186800F0F8407047024602F193
:10343000600000EB8103186800F0F8407047014617
:10344000C86800F00070704701468868C0F3C0008B
:10345000704701468868C0F3C00070478168034A1E
:10346000114041F00801816070470000C0FFFF7FFC
:103470000146886800F0010070470146886800F046
:103480000100704701468868C0F30070704701462C
:103490008868C0F38000704701468868C0F38000E8
:1034A00070470146C86800F4406008B901207047C1
:1034B0000020FCE770B500F11404C1F3406504EB93
:1034C00085031C68C1F304560725B540AC43C1F31E
:1034D000045502FA05F52C431C6070BD70B500F16F
:1034E0001404C1F3406504EB85031C68C1F3045662
:1034F0000725B540AC43C1F3045502FA05F52C434A
:103500001C6070BD826822F0E0720A4382607047DE
:10351000826822F0E0720A438260704710B500F1C1
:10352000600404EB81031C6824F0004414431C6015
:1035300010BD10B500F1600404EB81031C6824F099
:10354000004414431C6010BD426922F000420A434B
:1035500042617047426922F000420A43426170476B
:1035600008B50549C96C0143034AD1641146C96CC9
:103570000140009100BF08BD0010024008B5054998
:10358000896D0143034A91651146896D014000919F
:1035900000BF08BD00100240F0B502460B46186897
:1035A00090FAA0F0B0FA80F487E00120A0401D68F6
:1035B00005EA000100297FD05868012802D0586828
:1035C00002281DD19868956891FAA1F6B6FA86F698
:1035D00077000326BE40B54391FAA1F6B6FA86F607
:1035E000760000FA06F63543956000BFDD6818687E
:1035F0005668864300FB05F73E43566000BF00BF98
:103600001869D56891FAA1F6B6FA86F6770003260E
:10361000BE40B54391FAA1F6B6FA86F6760000FAF6
:1036200006F63543D56000BF586802282DD1FF2922
:1036300014D85869156A91FAA1F6B6FA86F6B70059
:103640000F26BE40B54391FAA1F6B6FA86F6B6004B
:1036500000FA06F63543156200BF16E05869556A50
:103660000E0A96FAA6F6B6FA86F6B7000F26BE4000
:10367000B5430E0A96FAA6F6B6FA86F6B60000FA32
:1036800006F63543556200BF00BF5868156891FAC9
:10369000A1F6B6FA86F677000326BE40B54391FA46
:1036A000A1F6B6FA86F6760000FA06F635431560FE
:1036B00000BF00E000E000BF641C1868E040002884
:1036C0007FF473AFF0BD816270472DE9F041DDE911
:1036D0000654C1F3090702F4006C47EA0C074FF4E3
:1036E0007F0C0CEA034C47EA0C072F43274327F0D3
:1036F000004647684FF4806C0CEA545C40F6FF3893
:103700004CEA080C4CF4C04C4CF0807C4CF47F0C20
:103710004CF0007C4CF4805C27EA0C073743476090
:10372000BDE8F08130B5024600BF106820F001000E
:10373000106000BFD1E90203146824F4F85440EA91
:1037400003252C43146000BF4868106100BF00BF10
:10375000106840F00100106000BF00BF906820F4C6
:103760000040906000BF8B69086994686FF30A0499
:1037700040EA03052C43946000BF086930B100BFE4
:10378000906840F40040906000BF00BF0868136874
:1037900023F440130343136000BF4869536823F4C4
:1037A00000430343536000BF002030BD2DE9F041CA
:1037B00004460025C02C2CD100BF174800682040CB
:1037C00040EA0440B0F5400F18D0A0F54000403862
:1037D00020B1402806D080280FD108E001F072FA0D
:1037E000054615E000F0B4F800B10C4D10E000F013
:1037F000B7F808B14FF400450AE000BF01F062FAE3
:10380000074601F025FA064601F034FA054600BFE6
:1038100000BF2846BDE8F081881002400024F40073
:103820002DE9F04104460025032C29D1204600F063
:1038300085F8B0F5403F18D06FF44031084420B10E
:10384000012806D002280FD108E001F03BFA054616
:1038500015E000F07DF800B1374D10E000F080F881
:1038600008B14FF400450AE000BF01F02BFA07460B
:1038700001F0EEF9064601F011FA054600BF57E0E7
:103880000C2C29D1204600F059F8B0F5402F18D063
:10389000A0F54020001F20B1042806D008280FD131
:1038A00008E001F00FFA054615E000F051F800B10C
:1038B000214D10E000F054F808B14FF400450AE043
:1038C00000BF01F0FFF9074601F0C2F9064601F01A
:1038D000D1F9054600BF2BE0302C29D1204600F05D
:1038E0002DF8B0F5401F18D0A0F54010103820B1C9
:1038F000102806D020280FD108E001F0E3F9054692
:1039000015E000F025F800B10B4D10E000F028F8AC
:1039100008B14FF400450AE000BF01F0D3F90746B3
:1039200001F096F9064601F0A5F9054600BF00BF73
:103930002846BDE8F08100000024F4000146034859
:103940000068084040EA01407047000088100240CB
:1039500002480068C0F38020704700000010024059
:1039600002480068C0F34000704700009010024019
:103970000248C068C0F306207047000000100240F3
:1039800008490968C0F3044303229A409143C2B234
:10399000C0F304439A401143024A883AC2F888109F
:1039A00070470000881002400349896821F0F00147
:1039B0000143014A916070470010024001490860CC
:1039C0007047000030000020016821F08001016094
:1039D0007047816821F080018160704710B5024610
:1039E0001368294882420BD0B2F1804F08D0274893
:1039F000824205D02648824202D02648824204D123
:103A000023F070004C6840EA04031F48824214D03F
:103A1000B2F1804F11D01D4882420ED01C48824224
:103A20000BD01C48824208D01B48824205D01B485C
:103A3000824202D01A48824204D123F44070CC68FA
:103A400040EA040313608868D06200BF088890626F
:103A500000BF0D4882420BD00E48824208D00E486B
:103A6000824205D00D48824202D00D48824203D1E5
:103A70000869106300BF00BF00BF506940F001003B
:103A8000506100BF002010BD002C01400004004028
:103A90000008004000340140004001400044014063
:103AA0000048014070B50246012901D1002425E0FB
:103AB000042901D1012421E0102901D102241DE0B3
:103AC000402901D1032419E0B1F5807F01D10424FC
:103AD00014E0B1F5806F01D105240FE0B1F5805FEE
:103AE00001D106240AE0B1F5804F01D1072405E099
:103AF000B1F5803F01D1082400E009242346064C9B
:103B0000E55C02F1180428190468044DEE5C0425F4
:103B1000B540AC43046070BDFE7C0008087D000821
:103B200070B50246012901D1002425E0042901D104
:103B3000012421E0102901D102241DE0402901D1F6
:103B4000032419E0B1F5807F01D1042414E0B1F51C
:103B5000806F01D105240FE0B1F5805F01D106240B
:103B60000AE0B1F5804F01D1072405E0B1F5803FAF
:103B700001D1082400E009242346064CE55C02F14B
:103B8000180428190468044DEE5C0825B5402C4340
:103B9000046070BDFE7C0008087D00082DE9F0413E
:103BA00006460C4615460127B4F5805F21D007DC98
:103BB000012C0CD0102C10D0B4F5807F2BD112E04A
:103BC000B4F5803F1BD0B4F5801F24D11DE02946F9
:103BD000304600F06DFE07461EE02946304600F0F4
:103BE000B9FE074618E02946304600F00BFF0746AD
:103BF00012E02946304600F057FF07460CE0294600
:103C0000304600F0A3FF074606E02946304600F0A4
:103C1000DFFF074600E000BF00BF3846BDE8F08187
:103C2000816370478268024B1A400A438260704782
:103C3000F8BFFEFF4268024B1A400A4342607047D9
:103C40008FFFFFFDF8B504460D46012700262046EC
:103C500000F05EF800284ED12969A8680843696918
:103C60000843E96908432168244A11400843206059
:103C7000E868616821F440510143616000BFA869B0
:103C8000A16821F440710143A16000BF1C48844237
:103C900004D10320FFF7C4FD064616E0194884420C
:103CA00004D10C20FFF7BCFD06460EE01648844206
:103CB00004D13020FFF7B4FD064606E013488442E5
:103CC00003D1C020FFF772FD06465EB1686848B1B7
:103CD00000276868009031462046EB692A6800F0AA
:103CE0001DF800BF2868E16A21F00F0182B211437C
:103CF000E16200BF00BF3846F8BD0000F369FFEF86
:103D0000003801400044004000480040004C0040A2
:103D10000146086800F0010070470000F0B51D463C
:103D2000059C0B2A26D82CB3B5F5004F15D1D7B278
:103D3000DFF844C05CF82770B1FBF7F77F0007EBB2
:103D40005407B7FBF4F7BBB24FF6F07703EA070668
:103D5000C3F342073E43C6600CE0D7B2DFF818C099
:103D60005CF82770B1FBF7F707EB5407B7FBF4F7E4
:103D7000BFB2C760F0BD0000607D0008816270477F
:103D800000B593B000201090119012903C2101A832
:103D9000FCF775FB4FF0A040354908604FF4403008
:103DA0004860002132488160C160016101214161A8
:103DB0000421816100210177012141770162002105
:103DC00080F8241080F838104FF48051C16300212E
:103DD00080F84010FDF7B2FD08B1FCF708FD0020A7
:103DE000109010A92248FDF705F908B1FCF7FFFC77
:103DF0002048019009200290012003907F20049028
:103E000004200590002006900320099000208DF8E2
:103E100028008DF829008DF82A0084200B9080203E
:103E20000C9000208DF8340001A91148FCF71AFD10
:103E300008B1FCF7DCFC1048019040F20F10029032
:103E400001A90B48FCF70EFD08B1FCF7D0FC0B48AC
:103E5000019040F2152002900020039001A904482F
:103E6000FCF700FD08B1FCF7C2FC13B000BD000078
:103E7000080100208000501D0001802100106032E8
:103E800000B597B020210FA8FCF7F9FA3C2168464D
:103E9000FCF7F5FA3348344908604FF44030486085
:103EA000002131488160C16001610121416104212B
:103EB000816100210177417701210162002180F8B1
:103EC0002410C162016380F83810C16380F840108B
:103ED000FDF734FD08B1FCF78AFC24480F9006205A
:103EE0001090002011907F20129004201390002049
:103EF00014900FA91C48FDF703F908B1FCF777FCF3
:103F00001A48009009200190012002907F20039020
:103F100004200490002005900220089000208DF8D5
:103F200024008DF825008DF8260084200A9080203A
:103F30000B9000208DF8300069460B48FCF792FC8E
:103F400008B1FCF754FC0A48009040F20F100190B1
:103F500069460548FCF786FC08B1FCF748FC17B039
:103F600000BD000000010050740100200002B025D7
:103F70000200300410B51048104908600020486065
:103F800000210E488160C160017441748174102168
:103F9000416101218161C161016241628162C1624D
:103FA0000163002141638163C163FDF7CDFE08B168
:103FB000FCF71DFC10BD000000640040E001002083
:103FC00010B5044A0021044801F0F4FC03490860DC
:103FD00010BD0000D47C0008594D00081C000020D2
:103FE00000B587B0182101A8FCF749FA2020FFF797
:103FF000B7FA0420FFF7B4FA0120FFF7B1FA022064
:10400000FFF7AEFA1020FFF7ABFA80211C48FFF74C
:104010005AFB4FF400414FF09040FFF754FB8020D3
:10402000019001200290002003900490059001A9C6
:104030001348FFF7B1FA4FF480400190002002903E
:104040000120059001A90E48FFF7A6FA4FF40040A1
:10405000019000200290059001A90948FFF79CFA01
:104060004FF4004001900120029000200390049042
:10407000059001A94FF09040FFF78EFA07B000BD00
:10408000001000482DE9F0418EB01C2107A8FCF774
:10409000F6F9182101A8FCF7F2F94FF480106D4AE7
:1040A00002EB10610A68040C0323A3409A43C3B2D5
:1040B000040CA3401A430A6000BF042065498839F4
:1040C000C96C0143634A883AD1641146C96C014006
:1040D000009100BF00BF8001019002200290039078
:1040E00001200490002005900820069001A95A485C
:1040F000FFF752FA4FF400700190022002900390F3
:1041000001200490002005900820069001A9524843
:10411000FFF742FA4FF080404E498839896D0143DC
:104120004C4A883A91651146896D0140009100BF63
:1041300000BF5C21494B1B68C3F302200524002506
:104140000346C3F1070CBCF1040F02D94FF0040C75
:1041500001E0C3F1070C674603F1040CBCF1070F43
:1041600002D24FF0000C01E0A3F1030C66464FF0C1
:10417000010C0CFA07FCACF1010C0CEA040C0CFA73
:1041800006FC4FF0010808FA06F8A8F1010808EA51
:1041900005084CEA080200BF002904DB1007030EE3
:1041A0002F48435407E01007040E2C480C3001F050
:1041B0000F031B1FC45400BF5C2000280DDB00BF91
:1041C00000BF00F01F02012191404209920002F15C
:1041D000E022C2F8001100BF00BF00BF002007901E
:1041E00020480890002009900A900B900C900D90A8
:1041F00007A91D48FFF796FA00BF1B48406840F02A
:1042000000701949486000BF00200146164AD26874
:1042100040F2FE739A4340EA01031A43124BDA60FC
:1042200000BF00BF1846C06820F400401946C860AF
:1042300000BF00BF0846006820F40020086000BFEF
:1042400000BF0846006820F40030086000BF0EB0D0
:10425000BDE8F08188100240000800480CED00E045
:1042600000E400E0361262400078004010B50948D2
:104270000949086000204860002107488160C1604A
:10428000016101758161C162FEF79CF808B1FCF71C
:10429000AEFA10BD000301404402002010B50948E9
:1042A0000949086000204860002107488160C1601A
:1042B000016101758161C162FEF784F808B1FCF704
:1042C00096FA10BD040301408002002010B5094891
:1042D0000949086000204860002107488160C160EA
:1042E000016101758161C162FEF76CF808B1FCF7EC
:1042F0007EFA10BD08030140BC02002010B5124830
:10430000124908604FF48270486000210F488160B4
:104310004FF4E061C1600021016141614FF400711F
:1043200081610821C161002101624162816207212E
:10433000C1620021016308214163FEF773FA08B1ED
:10434000FCF755FA10BD0000003C0040F8020020C8
:1043500030B587B0142102A8FCF791F84FF4003073
:104360001649096E0143154A11661146096E01404E
:10437000019100BF00BF01F087F80546002205212A
:1043800000F076FA04462146192001F08DF8192034
:1043900001F069F80020ADF8080003904FF6FF70B7
:1043A000049000200590069002A90548FFF716FB2F
:1043B0000348FFF709FB07B030BD000000100240C2
:1043C0000044014000B597B000201490159016905D
:1043D0001C210DA8FCF753F834216846FCF74FF870
:1043E0003548364908600020486020213348816004
:1043F00041F29901C1600021016141618021816127
:10440000FEF7E5FE08B1FCF7F2F9702014900020E9
:104410001590169014A92948FEF73EFB08B1FCF749
:10442000E6F960200D9040F64D000E9000200F90B0
:10443000109011901290139000220DA91F48FEF7C2
:104440000EFE08B1FCF7D3F904220DA91B48FEF7B4
:1044500006FE08B1FCF7CBF908220DA91748FEF7B4
:10446000FEFD08B1FCF7C3F940F69F700E900C22D8
:104470000DA91248FEF7F3FD08B1FCF7B8F90020CA
:1044800000900190029090200390002004900590ED
:1044900006900790089009900A900B900C9069463E
:1044A0000648FEF791FA08B1FCF7A1F90348FEF7B8
:1044B000A5FD17B000BD0000002C01405C030020EA
:1044C00030B585B014216846FBF7D9FF0220FFF70D
:1044D00055F800F0D9FF05460022052100F0C8F983
:1044E000044621461D2000F0DFFF1D2000F0BBFF29
:1044F0000D20ADF800000020019040F2F310029072
:104500000020039069460948FFF768FA0748FFF75B
:104510005BFA00210548FFF785FB00210348FFF700
:1045200089FB0248FFF755FA05B030BD0004004092
:1045300030B595B0142110A8FBF7A1FF202108A8E1
:10454000FBF79DFF182102A8FBF799FF0420FFF756
:1045500015F800F099FF05460022052100F088F9C2
:10456000044621461E2000F09FFF1E2000F07BFF26
:1045700040F6AE20ADF8400000201190FF201290D0
:104580000020139010A92048FFF728FA1E48FFF7D3
:104590001BFA00211C48FFF745FB01211A48FFF7D1
:1045A000BFFA60200890002009900A900B900C90B0
:1045B00008AA01211448FFF7F1FA01211248FFF778
:1045C00071FA00211048FFF735FB0F48FFF701FA99
:1045D00002200E49C96C01430C4AD1641146C96CD2
:1045E0000140019100BF00BF4020029002200390D3
:1045F00000200490059006900220079002A904482C
:10460000FEF7CAFF15B030BD0008004000100240A0
:10461000000400482DE9F04190B0202108A8FBF7E4
:104620002EFF182102A8FBF72AFF4FF440307D49E6
:10463000096821EA104182B211437A4A883AC2F8E5
:10464000881000BF4FF480401146096E0143116687
:104650001146096E0140019100BF00BF01201146C3
:10466000C96C0143D1641146C96C0140019100BF7E
:1046700000BF4002029002200390049000200590A9
:1046800006900720079002A94FF09040FEF784FFA4
:104690004FF4806002900220039004900020059067
:1046A00006900720079002A94FF09040FEF774FF94
:1046B00025215D4B1B68C3F302200524002503461A
:1046C000C3F1070CBCF1040F02D94FF0040C01E058
:1046D000C3F1070C674603F1040CBCF1070F02D2CB
:1046E0004FF0000C01E0A3F1030C66464FF0010C03
:1046F0000CFA07FCACF1010C0CEA040C0CFA06FCF9
:104700004FF0010808FA06F8A8F1010808EA0508C0
:104710004CEA080200BF002904DB1007030E4348DF
:10472000435407E01007040E3F480C3001F00F031C
:104730001B1FC45400BF252000280DDB00BF00BF95
:1047400000F01F02012191404209920002F1E02293
:10475000C2F8001100BF00BF00BF002008904FF456
:10476000E130099000200A900B900C900C200D90E5
:1047700000200E900F9008A92D48FFF763FA2C48EF
:10478000002100BF00BF00BF00F1080353E8002F65
:1047900061F35F7243E80024002CF5D100BF00BF35
:1047A0002348002100BF00BF00BF00F1080353E809
:1047B000003F23F0606343EA416200F1080343E8ED
:1047C0000024002CF1D100BF00BF00BF18480068D2
:1047D00040F000501649086000BF00BF084640681E
:1047E00020F4904048600846806820F02A008860E5
:1047F00000BF00BF0846006840F00100086000BF2D
:1048000000BF00BF0A48C069C0F340500028F8D07C
:1048100000BF0748C069C0F380500028F1D010B035
:10482000BDE8F081881002400CED00E000E400E0FB
:104830000038014010B50A480A490860082008718C
:10484000022108484171C1710021017241728172D7
:10485000C172FDF7FAFE08B1FBF7C9FF10BD0000F9
:10486000005C0040A803002000BFFEE700BFFEE799
:10487000F0B503460C4603F00701C1F10700042818
:1048800001D9042001E0C1F107000646081D0728F0
:1048900001D2002000E0C81E05460120B040401EA5
:1048A0002040A8400127AF407F1E17403843F0BD8D
:1048B00070B50246106A20F001001062136A556854
:1048C000946924F003041D4E04EA06000E6840EAD1
:1048D000060423F002000E6940EA060323F00100FB
:1048E0004E6840EA0603164882420BD015488242C1
:1048F00008D01548824205D01448824202D014489C
:10490000824213D123F008004E6940EA860323F067
:1049100004008E6840EA860325F480708E6940EAC0
:10492000060525F40070CE6940EA4605556094619D
:10493000C868506300BF1362002070BD8FFFFEFF88
:10494000002C01400034014000400140004401407F
:10495000004801402DE9F04104460D46206A20F050
:1049600010002062266AD4F80480A76927F44077F3
:104970001E483840296840EA012726F020002969AE
:1049800040EA011626F01000696840EA011618484E
:1049900084420BD01748844208D01748844205D07F
:1049A0001648844202D01648844213D126F0800073
:1049B000696940EA811626F04000A96840EA81163C
:1049C00028F48060A96940EA810828F40060E96958
:1049D00040EAC108C4F80480A7612046E968FFF7EF
:1049E0001FF926620020BDE8F0810000FF8FFFFE66
:1049F000002C0140003401400040014000440140CF
:104A00000048014070B50246106A20F480701062C0
:104A1000136A5568D46924F003041D4E04EA0600A5
:104A20000E6840EA060423F400700E6940EA06238B
:104A300023F480704E6840EA0623164882420BD069
:104A40001548824208D01548824205D01448824257
:104A500002D01448824213D123F400604E6940EA28
:104A6000862323F480608E6840EA862325F48050F4
:104A70008E6940EA061525F40050CE6940EA4615D5
:104A80005560D461C868D06300BF1362002070BD58
:104A90008FFFFEFF002C0140003401400040014028
:104AA000004401400048014070B50246106A20F4FD
:104AB00080501062136A5568D46924F440741D480C
:104AC00020400E6840EA062423F400500E6940EAB4
:104AD000063323F480504E6840EA0633164882427B
:104AE0000BD01648824208D01548824205D015489E
:104AF000824202D01448824213D123F400404E690E
:104B000040EA863323F480408E6840EA863325F4F9
:104B100080408E6940EA861525F40040CE6940EA5F
:104B2000C6155560D461C868106400BF13620020C8
:104B300070BD0000FF8FFFFE002C014000340140DB
:104B400000400140004401400048014030B50246A9
:104B5000106A20F480301062136A146D164D04EA56
:104B600005000D6840EA050423F400300D8A40EA90
:104B7000054323F480308D8840EA05430F48824284
:104B80000BD00F48824208D00E48824205D00E4812
:104B9000824202D00D48824206D1506820F4803013
:104BA0008D6940EA052050601465C868956C906472
:104BB00000BF1362002030BD8FFFFEFF002C0140BC
:104BC00000340140004001400044014000480140E1
:104BD00030B50246106A20F480101062136A146D1A
:104BE000154820400D6840EA052423F400100D8A82
:104BF00040EA055323F480108D8840EA05530F489E
:104C000082420BD00E48824208D00E48824205D024
:104C10000D48824202D00D48824206D1506820F4ED
:104C200080208D6940EA852050601465C868D06492
:104C300000BF1362002030BDFF8FFFFE002C01403B
:104C40000034014000400140004401400048014060
:104C5000014600BF0548806800F0F0000009044AE2
:104C6000105C00F01F0221FA02F0704700100240B1
:104C7000907D0008014600BF0648806800F4E060AF
:104C8000054A02EB1020007800F01F0221FA02F022
:104C90007047000000100240A07D0008014600BFE0
:104CA0000648806800F46050054A02EBD020007886
:104CB00000F01F0221FA02F07047000000100240CD
:104CC000A07D000810B500BF0A49896801F00C01F9
:104CD000042904D0082904D00C2907D103E0064890
:104CE00006E0054804E000F009F801E0024800BFD2
:104CF00000BF10BD001002400024F40070B500BFDA
:104D00001348C06800F003000546022D02D0032DB1
:104D100004D101E00F4C03E00E4C01E00D4C00BF4C
:104D200000BFFEF725FE60430949C96801F0F001A4
:104D3000012202EB1111B0FBF1F10548C06800F04F
:104D4000C06002EB50604000B1FBF0F070BD0000AD
:104D5000001002400024F40000BF00F097FC04465D
:104D600021460648FFF70AF800210448FFF706F835
:104D70004FF4FA7000F0C9FDEFE700000038014081
:104D800010B54FF0E020006902F0DCFC012801D0F2
:104D900002F026F910BD0000F8B504205449096856
:104DA00021F00F010143524A116000BF00BF00BF54
:104DB0004F48006800F00F000428F8D100BF4D48AC
:104DC000006820F480704B498039C1F8800000BF32
:104DD00000BF4948006840F480704749086000BF40
:104DE00000BF00BF44480068C0F380200028F8D00E
:104DF00040204149496821F0FE4141EA00613E4AB4
:104E0000516000BF00BF3C489830006840F001008E
:104E10001146C1F8980000BF00BF00BF3648983067
:104E20000068C0F340000028F7D00220302155224E
:104E3000002340EA010444EA02241C432E4DED689D
:104E40002E4E35402C432C4DEC6000BF00BF284651
:104E5000C06840F080702946C86000BF00BF0846A7
:104E6000006840F08070086000BF00BF00BF2248AB
:104E70000068C0F340600028F8D003201E4989680C
:104E800021F0030101431C4A916000BF8020FEF71E
:104E90008BFD00BF00BF1848806800F00C000C2894
:104EA000F8D15520009002E00098401E0090009834
:104EB0000028F9D1FEF778FD00200F49896821F418
:104EC000E06101430C4A916000BF00BF1146896850
:104ED00021F460510143916000BF0948FEF76EFD67
:104EE0000F20FDF78FF908B1FBF781FCF8BD00003A
:104EF0000020024080700040001002400C80FFF94A
:104F000080FE210A0348006840F4700001490860EF
:104F10007047000088ED00E010B50648006810B149
:104F20000448FDF75AFF0448006810B10248FDF735
:104F300054FF10BD5C0300208406002010B5034818
:104F4000006810B10148FDF748FF10BD5C03002068
:104F500010B500BF6FF001000249086100BF00F00A
:104F6000D3FC10BD0004004010B500BF6FF001007D
:104F70000249086100BF00F0BFFB10BD00080040FF
:104F800010B502682A4B98420BD0B0F1804F08D080
:104F9000284B984205D0284B984202D0274B984284
:104FA00003D122F070024B681A43214B984214D06F
:104FB000B0F1804F11D01F4B98420ED01E4B98423B
:104FC0000BD01E4B984208D01D4B984205D01D4B6C
:104FD000984202D01C4B984203D122F44072CB6815
:104FE0001A4322F080034C6943EA040202608B6892
:104FF000C3620B6883620E4B98420BD00F4B9842F2
:1050000008D00F4B984205D00E4B984202D00E4B61
:10501000984201D10B69036301234361036903F0E3
:1050200001031BB1036923F00103036110BD0000FC
:10503000002C014000040040000800400034014002
:1050400000400140004401400048014030B501F0FB
:105050001F05012404FA05F3046A9C430462046AF0
:1050600001F01F0502FA05F52C43046230BD30B58E
:1050700001F00F05042404FA05F3046A9C4304625A
:10508000046A01F00F0502FA05F52C43046230BDF5
:1050900030B5026A056A25F0010505624368846936
:1050A000204D2C4024F003040D682C4322F0020212
:1050B0008D682A431C4DA84200D10FE01B4DA84229
:1050C00000D10BE01A4DA84200D107E0194DA842CB
:1050D00000D103E0184DA84206D100BF22F008021B
:1050E000CD682A4322F004020F4DA8420BD00F4D89
:1050F000A84208D00E4DA84205D00E4DA84202D0BD
:105100000D4DA84207D123F4807323F400734D6939
:105110002B438D692B43436084614D684563026274
:1051200030BD00008FFFFEFF002C01400034014025
:1051300000400140004401400048014030B5026A8F
:10514000056A25F01005056243688469224D2C40EC
:1051500024F440740D6844EA052422F020028D688E
:1051600042EA05121D4DA84200D10FE01C4DA84295
:1051700000D10BE01B4DA84200D100BF1A4DA84240
:1051800000D100BF194DA84207D106E022F08002ED
:10519000CD6842EA051222F04002104DA8420BD021
:1051A0000F4DA84208D00F4DA84205D00E4DA84281
:1051B00002D00E4DA84209D123F4806323F400638A
:1051C0004D6943EA85038D6943EA85034360846141
:1051D0004D688563026230BDFF8FFFFE002C0140E9
:1051E00000340140004001400044014000480140BB
:1051F00030B5026A056A25F4807505624368C469A2
:10520000224D2C4024F003040D682C4322F400723C
:105210008D6842EA05221E4DA84200D10FE01D4DC7
:10522000A84200D10BE01C4DA84200D100BF1B4D8D
:10523000A84200D100BF1A4DA84207D106E022F4CF
:105240000062CD6842EA052222F48062104DA84235
:105250000BD0104DA84208D00F4DA84205D00F4DDD
:10526000A84202D00E4DA84209D123F4805323F462
:1052700000534D6943EA05138D6943EA0513436002
:10528000C4614D68C563026230BD00008FFFFEFF40
:10529000002C014000340140004001400044014026
:1052A0000048014030B5026A056A25F48055056260
:1052B0004368C469224D2C4024F440740D6844EACC
:1052C000052422F400528D6842EA05321D4DA842A1
:1052D00000D10FE01C4DA84200D10BE01B4DA842AD
:1052E00000D100BF1A4DA84200D100BF194DA842FD
:1052F00007D106E022F40042CD6842EA053222F4EA
:105300008042104DA8420BD00F4DA84208D00F4D3F
:10531000A84205D00E4DA84202D00E4DA84209D198
:1053200023F4804323F400434D6943EA85138D69D8
:1053300043EA85134360C4614D680564026230BD71
:10534000FF8FFFFE002C014000340140004001406F
:10535000004401400048014030B5026A056A25F466
:10536000803505624368046D114D2C400D682C4357
:1053700022F400320D8942EA05420E4DA8420BD0BC
:105380000D4DA84208D00D4DA84205D00C4DA842A5
:1053900002D00C4DA84204D123F480334D6943EA76
:1053A0000523436004654D688564026230BD0000DA
:1053B0008FFFFEFF002C01400034014000400140FF
:1053C000004401400048014030B5026A056A25F4F6
:1053D000801505624368046D114D2C400D6844EA48
:1053E000052422F400120D8942EA05520D4DA8420F
:1053F0000BD00D4DA84208D00C4DA84205D00C4D45
:10540000A84202D00B4DA84204D123F480234D6959
:1054100043EA8523436004654D68C564026230BD7C
:10542000FF8FFFFE002C014000340140004001408E
:10543000004401400048014070470346012023F822
:10544000400F0020188098801882403B704701462A
:105450004BF68072B1F840009043A1F84000002064
:10546000704700BFFEE700280DDB00BF00BF00F063
:105470001F02012191404209920002F1E022C2F88C
:10548000001100BF00BF704702480068C0F302204F
:10549000704700000CED00E002480068C0F30220F5
:1054A000704700000CED00E010B5002804DB0A078F
:1054B000130E054A135406E00A07140E034A00F0BF
:1054C0000F031B1FD45410BD00E400E018ED00E0F2
:1054D00010B5002804DB0A07130E054A135406E032
:1054E0000A07140E034A00F00F031B1FD45410BD0B
:1054F00000E400E018ED00E0EFF30580704710B520
:10550000012000F08FF910BD7047000011480068BD
:10551000114908804FF0A040D0F884000F4908805E
:105520004FF0A040D0F888000D4908804FF0A0400F
:10553000D0F880010B4908804FF0A040D0F88401DA
:10554000094908804FF0A040D0F888010749088039
:1055500070470000800000500C0000200E0000206A
:10556000100000201200002014000020160000206F
:1055700070B500F089FA04460D4600F041FB60B1B9
:1055800000F082FA04460D4600F08EFA0646084600
:10559000711C40F100000C1945412046294670BDA0
:1055A00008B506A000680090054800788DF8010055
:1055B0000221684600F010F908BD00000900000053
:1055C000677C000810B500F051F80220FCF7A8FB3A
:1055D000FFF7E6FF0220FCF7A3FB00F035F80220FE
:1055E000FCF79EFB00F01EF80220FCF799FB00F090
:1055F00007F80220FCF794FB802000F0C9F810BDEA
:1056000008B506A000680090054800788DF80100F4
:105610000221684600F0E0F808BD00000B00000021
:10562000667C000808B506A0006800900548007870
:105630008DF801000221684600F0CEF808BD000098
:105640000C000000687C000808B506A00068009007
:10565000054800788DF801000221684600F0BCF88A
:1056600008BD00000B000000657C000810B580201C
:105670000549886100BF3220FCF752FB80200249B7
:10568000886200BF10BD00000010004810B58020E7
:1056900000F07EF810BD00002DE9F04100210C461D
:1056A0000D4600F0EBF90646002718E0FFF760FF13
:1056B0000F4A13685268C41841EB02050D49086887
:1056C0004968201A75EB010003DA0A480468456846
:1056D00002E0084804604560304600F099FA381E40
:1056E00007F10407E2D020462946BDE8F08100001A
:1056F000F0000020B80000201148008800EE100AD9
:10570000B8EE400ADFED0F0AB4EEE00AF1EE10FA4F
:1057100003DBFF200C49087005E00948008810B938
:1057200001200949087006480088074991F90010CE
:1057300008440349088008880449486300BF70474B
:1057400000000020008065430200002000080040A7
:1057500000BF0E48406C40F400400C49486400BF54
:105760000120096A0143094A116200BF00BF1046C7
:10577000C06840F001001146C86000BF00BF084685
:10578000006840F00100086000BF7047000800405A
:105790003EB504460294012102A800F01DF80C4811
:1057A0004FF0007101230022CDE900108E2109483D
:1057B000FDF78BFF00BF00BF06488069C0F3800083
:1057C0000028F8D000BF0348406AC0B23EBD0000C8
:1057D00000240080007800407CB505460C460F4848
:1057E000010323460022CDE900108E210C48FDF76D
:1057F0006CFF00200DE000BF00BF09498969C1F3BB
:1058000040010029F8D0295C054A916200BF411C83
:10581000C8B2A042EFDB00207CBD00000020008069
:10582000007800402DE9F0410446002500F026F9FB
:105830000646002708E0204600F03BF9054600F048
:1058400015F9304600F0E4F9381E07F10407F2D0EC
:1058500001F01CF800210C4A116051600B4A1160E4
:10586000516000200A4A106050600A4A106050607F
:10587000094A11605160094A11605160FFF744FE06
:105880002846BDE8F0810000F0000020E000002084
:10589000E8000020B8000020C0000020C800002060
:1058A000FCF7A0FCFFF778FAFEF79AFBFEF762FB25
:1058B000FEF7E8FBFEF7DAFCFEF7F0FCFEF706FD6C
:1058C000FEF780FDFEF744FDFEF7A4FEFEF7F8FDAF
:1058D000FEF756FAFEF7AEFFFEF7D2FAFEF70EFD20
:1058E000FEF726FEFFF734FF00F066FFFFF76AFEC3
:1058F00000F01AF8FEF764FB00F02CF803E04FF418
:10590000FA70FCF70DFAFAE7704770B50546FFF735
:10591000F3FD10B16FF0050404E0002415B1284632
:1059200001F082F9204670BD10B5FFF7E5FD10B11A
:105930006FF0050409E00648006820B90120044919
:105940000860002401E04FF0FF34204610BD000045
:105950008400002070B5FFF7CFFD10B16FF0050493
:105960001FE011480068012819D100BF801F0021E5
:10597000002804DB0A07130E0C4A135406E00A073A
:10598000150E0B4A00F00F031B1FD55400BF00BFBC
:1059900002200549086001F0C3F9002401E04FF03E
:1059A000FF34204670BD00008400002000E400E0C9
:1059B00018ED00E02DE9FF47804689461446002097
:1059C0000390FFF799FD00284ED1B8F1000F4BD09E
:1059D000802618258246471E44B3206808B1D4F8B3
:1059E00000A0A06900B1A5692DB1382D03D8207998
:1059F00000F0010018B1002004B0BDE8F087606934
:105A000008B160698608A06840B1E0685C2805D3E9
:105A1000206918B1606908B1012708E0A06830B9B1
:105A2000E06820B9206910B9002700E00027012FA5
:105A30000CD12169A0684B463246CDE90051029055
:105A40005146404601F020FE03900DE067B903A8DF
:105A5000B2B24B465146CDE90050404601F0E2FD5E
:105A6000012801D0002003900398C5E74FF0007093
:105A7000014908607047000004ED00E000BFEFF34B
:105A80001081084672B670474FF0E020416900224D
:105A90008069081A62EB0201704700000148006843
:105AA00070470000300000204FF0E02040690021E6
:105AB000704730B5014600BF01B120E000BF00BF14
:105AC000EFF31084234672B600BF1846002211E09F
:105AD00000234FF0E02423616FF07F4363610023D4
